:020000040000FA
:10000000780320204D010000510100005301000041
:1000100000000000000000000000000000000000E0
:10002000000000000000000000000000550100007A
:10003000000000000000000057010000411800000F
:100040005B0100005B0100005B0100005B01000040
:100050005B0100005B0100005B0100005B01000030
:10006000000000005B0100005B01000000000000D8
:10007000000000005B0100005B0100005B0100006C
:100080005B0100005B0100005B0100005B01000000
:100090005B0100005B0100000000000000000000A8
:1000A0005B0100005B010000000000000000000098
:1000B0005B010000000000005B0100005B0100002C
:1000C00000F002F800F032F80CA030C8083824180C
:1000D0002D18671EA246AB4654465D46AC4201D180
:1000E00000F024F87E460F3EB6460FCC0126334280
:1000F00000D0FB1A3343A246AB4618477C1C0000D5
:100100008C1C0000000000000023002400250026B5
:10011000103A01D378C1FBD8520700D330C100D5C3
:100120000B6070471FB51FBD10B510BD00F0F6FB8A
:100130001146FFF7F7FF01F08BFB00F00EFC03B454
:10014000FFF7F2FF03BC00F063FC00000648004725
:10015000FEE7FEE7FEE7FEE7FEE7FEE703480449A9
:10016000024A044B70470000C100000078022020C2
:100170007803202078022020002203098B4273D3C9
:10018000030A8B4258D3030B8B423CD3030C8B42A4
:1001900021D312E003460B437FD4002243088B4255
:1001A00074D303098B425FD3030A8B4244D3030BFE
:1001B0008B4228D3030C8B420DD30902FF2212BAC3
:1001C000030C8B4202D31212090265D0030B8B423F
:1001D00019D300E0090AC30B8B4201D3CB03C01A29
:1001E0005241830B8B4201D38B03C01A5241430B04
:1001F0008B4201D34B03C01A5241030B8B4201D3F4
:100200000B03C01A5241C30A8B4201D3CB02C01A5E
:100210005241830A8B4201D38B02C01A5241430AD6
:100220008B4201D34B02C01A5241030A8B4201D3C5
:100230000B02C01A5241CDD2C3098B4201D3CB016C
:10024000C01A524183098B4201D38B01C01A52411B
:1002500043098B4201D34B01C01A524103098B421F
:1002600001D30B01C01A5241C3088B4201D3CB000A
:10027000C01A524183088B4201D38B00C01A5241ED
:1002800043088B4201D34B00C01A5241411A00D29D
:1002900001465241104670475DE0CA0F00D0494206
:1002A000031000D3404253409C46002203098B4276
:1002B0002DD3030A8B4212D38901FC2212BA030AFE
:1002C0008B420CD3890192118B4208D38901921180
:1002D0008B4204D389013AD0921100E08909C30905
:1002E0008B4201D3CB01C01A524183098B4201D307
:1002F0008B01C01A524143098B4201D34B01C01AF2
:10030000524103098B4201D30B01C01A5241C30869
:100310008B4201D3CB00C01A524183088B4201D3D8
:100320008B00C01A5241D9D243088B4201D34B00F3
:10033000C01A5241411A00D201465241104663464A
:100340005B1001D34042002B00D549427047634601
:100350005B1000D3404201B50449002802DC491C6F
:10036000084000E00846C046C04602BDFFFFFF7FD0
:1003700070477047704700000246C80FC0078143AE
:100380004B0030B54B405B009B0D20D01923DB06A2
:10039000C91801231B05994220DB0324A407042567
:1003A0001346AB400BD3002B04D1EB0613409B004C
:1003B000E34204D401246407002312195941FF23A6
:1003C0001B0599420BD2C9000143500F09E0CB0233
:1003D00004D501430803024305D0054830BDFF2181
:1003E000C905084330BD084607210905884330BDCB
:1003F0000000C07FF0B50C46871A9C410D46861A56
:100400009D4103D2C01BA141D21963410D0D1F0DA7
:10041000C94EEC1BAE435CD07F057F0D0026002F3C
:1004200051D02D05AC46A943DD020123ED0A1B0581
:100430001D4320231B1B24D41746E7403818714165
:100440002F46E740CC199D402818314661410C0DDC
:1004500027D161449A4013D50023401C59415200D2
:100460000ED14008400001224B005205D34207D371
:1004700005204007C14201D5B04900E0B0493046EF
:10048000F0BD6B00002A00D001229A181F23203CE7
:100490001B1B01D5002302E0E540281871410C0D1B
:1004A000D7D0012424050919C407CD0740084908FD
:1004B000E40F28436144002CD5D00024401C614146
:1004C0009A40D0D1CDE76A05520DD9D1C90FC907DD
:1004D000D5E79C4D4E00002801D0012400E0002407
:1004E00034195F00002A01D0012600E00026BE1961
:1004F000954FAC420CD8AE420AD8B44206D0012582
:100500006D05EC42BCD010461946F0BD9942FCD0B6
:1005100000203946F0BDF0B51FB40C460F46811AD5
:100520009F412546861A9D4106D20125ED076F4061
:10053000401ABC4152187B41210D1E0D8D1BAC464B
:100540007D4D8D437ED075056D0D7CD00D05AE467D
:10055000AC431B031B0B794D52429D412023664641
:100560009B1B14D31746F74038180026009074419F
:1005700060462F460741E41900989D4028186641BF
:1005800016D4714671189A4025D5012320E093189E
:100590002A466A415200002B00D0521C1E23203EE6
:1005A0009B1B002B61DD3541EE1728186641E8D50D
:1005B000001876415B1C9A4000D3401C4B05F31891
:1005C0001524E34010D3002B52D071467118D30F7D
:1005D000C01802D3491C05B0F0BD0123DB079A42C5
:1005E000F9D140084000F6E701225205B21801D1C6
:1005F000002853D00123CC0ADB029943891E002A2C
:1006000008D1020C03D0020C0004103902E00246AB
:10061000002020390023550B05D112020823550B69
:1006200001D152010D23550C01D112011B1DD50C16
:1006300001D192009B1C150D01D152005B1C20259D
:10064000EE1A01E02CE022E00546F5401543984003
:10065000CA1AE10769181305C918002ABBDA032072
:1006600040070818C10FC9070FE071466118B2E7CB
:10067000F10740080843711071444A000CD001236F
:100680005B059A42A7D2C90FC9070020A3E7490515
:10069000490D26D1002001E00028F4D100219AE77D
:1006A000284D6600002801D0012100E000217118CA
:1006B0005F00002A01D0012600E00026BE19224F6B
:1006C000A94210D8AE420ED8B14208D001256D051E
:1006D000E94206D01946A802414010467BE79C42F9
:1006E00001D0214677E70020394674E710B50C4663
:1006F0005C4005D50124E4076340FFF70CFF10BD03
:10070000FFF778FE10BD30B40C465C4004D50124E0
:10071000E407634030BC6DE630BCFCE670B50124F4
:10072000E40761400D465D4002D4FFF763FE70BDF3
:100730006340FFF7F0FE70BDFF0700000000F0FF10
:100740000000F07F0000E0FF0000F87F30B50346B6
:10075000CA02400D1043164D164C0A1502D0204314
:10076000002A06DBAA1A002A12DDD040FF2A0BDC81
:1007700030BD5205520D01D140004008AA1A07D4DD
:10078000D0404042FF2A01DD002030BD0028FCDDC2
:100790004A00002B01D0012000E0002010180122A7
:1007A0005205D042F0D8C817C043604030BD0000A9
:1007B0001E040000000000800121C905012341182A
:1007C00042001B06D3185B0E0AD0C1100722D206C6
:1007D000891840075242D14201D55200891870470A
:1007E000090208D50146002A03D0C10FC90700201D
:1007F000704710467047420202D0002002497047FD
:10080000072109050143F4E70000F87F10B5014610
:100810009E240002CA15A307002A02D01843002A0A
:1008200004DBA21A002A0CDDD04010BD1206120E05
:1008300001D140004008A21A03D4D0404042002811
:10084000F3DDFF2248001206904201D9002010BDBE
:10085000C817C043584010BD1F22030C02D10F22FD
:1008600000041CD0030E01D10002083A030F01D18D
:100870000001121F830F01D18000921E002801DBAE
:100880004000521ED20551180212511819229040F0
:1008900004D3491C002801D1490849000846704783
:1008A000C10FC90700D04042012292071143D3E78C
:1008B00001218907D0E7000010B5FF231B06440083
:1008C0009C421DD84C009C421AD80346124A0B4346
:1008D00007D4401A02D3EFF3008010BDEFF300807D
:1008E00010BD081A03D3EFF30080904305E0EFF347
:1008F000008001219043C907084380F3008810BDA0
:100900000D231B041A4204D01146002000F02DF8DC
:1009100010BD00F041F810BD00000090754600F0D9
:1009200043F8AE46050069465346C008C0008546F8
:1009300018B020B5FFF712FC60BCB64600260027B1
:10094000C0C5C0C5C0C5C0C5C0C5C0C5C0C5C0C57F
:10095000403D490849008D46704710B50446C046E1
:10096000C0462046FFF7EBFB10BDC80212D5480376
:10097000400F002804D0C803C043012188407047BD
:10098000EFF300800001000903210907084380F309
:10099000008870470020704710B5024800F008F842
:1009A00010BD00000000C07F0048704700002020FC
:1009B00010B50C461107090F092904D00A290AD0DD
:1009C00008290CD104E011460820FFF7CEFF06E00D
:1009D000510606D501E0510601D50120C007214688
:1009E00010BDD10607D501010909CC084907000E41
:1009F0000006044309E0410F20024907000A0143B1
:100A0000200E00061D22D14101430846E7E7000001
:100A100001491820ABBEFEE7260002007047000027
:100A200083B0F0B588B005460DA80EC00DA804909F
:100A30007D20C00003901A4E1A4F03E0304600F0AC
:100A40007BFC651C2978252908D0002900D165E3A5
:100A5000304600F071FC2C466D1CF3E76C1C687886
:100A600001466339152900D96BE04900794489882A
:100A700049008F4419001E006A006C006A006A0079
:100A80006A006A006A00CC006A006A006A006A00B4
:100A90006A006A001C016A0030016A006A0077017E
:100AA00000801040601D00000498011D0491017831
:100AB000C4E70498011D049101680029029400D143
:100AC000EBE1C817019141400D1A00240A2728467E
:100AD000394600F0F1FE4743E91B3027394305AAA8
:100AE00011550A2D00D2E9E10A21FFF745FB05A8BF
:100AF000001939434170642D00D2E1E16421284698
:100B000000F0DAFE0A21FFF737FB05A80019394388
:100B1000817003998D4200D2D6E1284600F0CCFEC8
:100B20000A21FFF729FB05A800193943C17028469F
:100B3000F44F394600F0C0FE241DBD420546C5D223
:100B4000C3E1252801D1252178E72521AFE10498CB
:100B5000C11D0720814308460830049003C9FFF7F0
:100B60000BFC07460025294600F0A1FF002806D10E
:100B70002D21304600F0E0FB0120C00747403846F9
:100B8000FFF744FE00280294019000D12EE10128D5
:100B900000DAC6E10097019F0A243846214600F09A
:100BA0008BFE4443391B3024214305AA51550A2F9B
:100BB00000D29EE10A21FFF7DFFA05A84019214380
:100BC0004170642F00D298E16421384600F074FE31
:100BD0000A21FFF7D1FA05A8401921438170039932
:100BE0008F4200D290E1384600F066FE0A21FFF7FE
:100BF000C3FA05A840192143C1703846C14C2146AB
:100C000000F05AFE2D1DA7420746C5D27DE1A87807
:100C1000AC1C752800D1FAE0642800D042E10498A9
:100C2000011D049101680029029400D135E1C81723
:100C3000019141400D1A00240A272846394600F048
:100C40003BFE4743E91B3027394305AA11550A2DBE
:100C500000D2E7E10A21FFF78FFA05A8001939430E
:100C60004170642D00D2DFE16421284600F024FEAB
:100C70000A21FFF781FA05A8001939438170039909
:100C80008D4200D2D2E1284600F016FE0A21FFF77D
:100C900073FA05A800193943C1702846994F39469F
:100CA00000F00AFE241DBD420546C5D2BFE10498EE
:100CB000011D049101680878002800D12CE2254626
:100CC0004C1CC1B2304600F037FB611C2078002874
:100CD0000C46F6D1BFE60498011D04910568002D6D
:100CE000029400D1D9E0012D00DA14E200240A2791
:100CF0002846394600F0E0FD4743E91B30273943D9
:100D000005AA11550A2D00D2F5E00A21FFF734FAA1
:100D100005A8001939434170642D00D2EFE0642129
:100D2000284600F0C9FD0A21FFF726FA05A8001998
:100D30003943817003998D4200D263E1284600F067
:100D4000BBFD0A21FFF718FA05A800193943C17045
:100D50002846F54F394600F0AFFD241DBD4205463B
:100D6000C5D250E10498011D04910568002D02943C
:100D700041D00F202840385C05A90870102D00D202
:100D80009AE02806000F385C05A94870280A00D1AF
:100D900098E02805000F385C05A98870280B00D161
:100DA0003EE12804000F385C05A9C870280C00D16A
:100DB00051E12803000F385C05A90871280D00D106
:100DC0005DE12802000F385C05A94871280E00D1AA
:100DD00057E12801000F385C05A98871280F00D160
:100DE00051E1385C05A9C87108244DE13021304635
:100DF00000F0A2FA95E030253046294600F09CFA32
:100E00007821304600F098FA30462946E6E004980A
:100E1000011D04910568002D02943ED0012D00DAD9
:100E200079E100240A272846394600F045FD47436A
:100E3000E91B3027394305AA11550A2D00D20CE1D0
:100E40000A21FFF799F905A8001939434170642D6B
:100E500000D204E16421284600F02EFD0A21FFF7AC
:100E60008BF905A800193943817003998D4200D28E
:100E7000F7E0284600F020FD0A21FFF77DF905A8DC
:100E800000193943C1702846A74F394600F014FDB8
:100E9000241DBD420546C5D2E4E03021304600F0B5
:100EA0004BFA38E12521304600F046FA6C213046F5
:100EB00000F042FA2178C1E50124E5E0641C04E079
:100EC000A41C02E00224DFE0E41C0198002803D502
:100ED0002D21304600F030FA641C964F05A8001909
:100EE000801E0178304600F027FA641E012CF5D8E8
:100EF00011E16D1C09E0641C85E0AD1C05E0A41C3B
:100F000081E0C04610270000ED1C6C1C009F05A866
:100F10000019801E0178304600F00EFA641E012C84
:100F2000F5D82E21304600F007FA0198FFF7B8FCFB
:100F30000146384600F08EFE7C4900F033FEFFF794
:100F40003BFC00252A467A4BFFF7D0FBFFF7FEFB60
:100F500007460A2808DA3021304600F0EDF9002F64
:100F60003AD0012F00DAD5E00A243846214600F0B5
:100F7000A3FC4443391B3024214305AA51550A2FB1
:100F80002FD30A21FFF7F8F805A840192143417033
:100F9000642F28D36421384600F08EFC0A21FFF725
:100FA000EBF805A840192143817003998F421CD3A7
:100FB000384600F081FC0A21FFF7DEF805A8401949
:100FC0002143C1703846584C214600F075FC2D1D58
:100FD000A7420746C8D209E03021304600F0ACF9FC
:100FE00098E06D1C02E0AD1C00E0ED1C6C1C05A837
:100FF0000019801E0178304600F09EF9641E012C15
:10100000F5D887E0E41C641C4A4F05A80019801E2F
:101010000178304600F090F9641E012CF5D87AE092
:10102000032431E0641C02E0A41C00E0E41C0198ED
:10103000002803D52D21304600F07EF9641C3D4F79
:1010400005A80019801E0178304600F075F9641E6D
:10105000012CF5D85FE0042416E0641C02E0A41C17
:1010600000E0E41C641C334F05A80019801E0178C1
:10107000304600F061F9641E012CF5D84BE00524E0
:1010800002E0062400E007243021304600F054F945
:101090007821304600F050F9671E05A8C15D304642
:1010A00000F04AF9102D35D3A51E05A8415D304644
:1010B00000F042F9022F2DD3E71E05A8C15D30468E
:1010C00000F03AF9022D25D3251F05A8415D3046D1
:1010D00000F032F9022F1DD3671F05A8C15D30460D
:1010E00000F02AF9022D15D3A51F05A8415D304651
:1010F00000F022F9022F0DD305A82018C01F017897
:10110000304600F019F9022D04D305A8201808383C
:10111000017862E7074F029C651C93E408B0F0BCBD
:1011200001BC03B00047C046102700000000C842C1
:101130000000E03F601D0000801E001F00BFFCD2C9
:101140007047000070B582B00B794A79002A24D02C
:10115000174A21242401202B00D070348218002B40
:1011600000D18824156C404E35402D191564556CFE
:1011700035402C19546414683E4D2C40146054685A
:101180002C4054600024146254628F24E443156D93
:1011900025401565556D254055656A4613718B7957
:1011A000537109680091114600F004F802B070BD57
:1011B00038180000F0B52A4A82182A4BC31808795B
:1011C00020280DD000281DD10C68641E5460D56EF7
:1011D000254C25408835D5661646703688251DE095
:1011E0000C68641E5460D46E1F4D2C401F4EA41911
:1011F000D466146F2C40A4191467012465071C4C95
:1012000016460BE00C6864085460D66E164C2640F7
:101210000525ED017619D6661646703637682740E3
:101220002F433760D46A134D2C40D462146B2C408A
:1012300014630024D46414658F24E443D56F2540DF
:10124000D5671D6825401D6049790143BD200840D0
:101250001168094B0B40C018801C1060F0BDC046DF
:10126000041800008418000024F93FF00104000075
:10127000FFFFFFCF8888FDFF4000FFCF10B5072399
:101280009B04194092008018024A84589C436118BC
:10129000815010BD3018000010B5029CA400001948
:1012A00011431943014A815010BDC0465018000037
:1012B00092008018014A81507047C0461018000003
:1012C00010B50122120383180C789C604B78835070
:1012D0008978014A815010BD0C110000B0B511226F
:1012E000120283580124A34383508B780C881C433B
:1012F0008B882343094C1C408358094D1D402B19F2
:1013000083508B79CC791C43097A21437E23194081
:10131000801842689A4351184160B0BD18670000B8
:10132000E798FDFF10B50122120383180C789C602A
:101330004978815010BD0000074A801802681206E3
:1013400008D50268120605D50268120602D50268A1
:101350001206F3D481617047081100000D48002186
:10136000016070470B490A680B689B1A834210D2D0
:1013700020BF0B689B1A83420BD220BF0B689B1ABD
:10138000834206D220BF0B689B1A834201D220BF42
:10139000EAE7704770022020B0B50E4A02201060C4
:1013A000BFF34F8FBFF36F8F0B4900238B810B600F
:1013B0004B608B6001248C73084D28601060BFF374
:1013C0004F8FBFF36F8F8B830B614B618B618C777A
:1013D0002860B0BD80E100E06000202000E100E076
:1013E0007047000010B59848002421462246FFF7B8
:1013F0005FFFAC4802222146FFF75AFF65482146AD
:101400002246FFF755FF7A4801222146FFF750FF99
:1014100010BDC046F0B581B0054608B2C0130A46FB
:101420004240101AC2B20A207D27FC00642A2646D8
:1014300001D8424316462AB2D2132B4653409A1A79
:10144000D2B2642A01D8504304467F48002900974D
:1014500009D4F9008E4200D30E46002731463A46A1
:10146000FFF726FF08E000210A46FFF721FFF800FA
:10147000864200D3064637468A4802223946FFF79D
:1014800017FF4448002D0AD40099C9008C4200D3AC
:101490000C46002521462A46FFF70AFF09E00021F5
:1014A0000A46FFF705FF0098C000844200D30446B7
:1014B00025464F4801222946FFF7FAFE01B0F0BD4C
:1014C000B0B51B4A8720D0600120430419490B6046
:1014D00088235360C3030B608623936243050B602C
:1014E0008523936403060B60134C82236360134DC2
:1014F0006B1C236081231360114B136253621363CF
:101500001364E56525660A46403A8003106008606A
:10151000813B0C48016819430160032000020A491D
:101520000A6A02430A620A6802430A60B0BDC04602
:1015300090804240D0120A4008804240810004005E
:101540008100050090330A4028300A40B0B582B0CF
:10155000104C11492046FFF7B3FE10492046FFF713
:1015600029FE7D20C100002520462A46FFF7A0FE67
:101570000095204629462A462B46FFF78DFE204639
:1015800029462A46FFF77AFE05480121816001605D
:1015900002B0B0BD00808640241D0000281D000060
:1015A0000091864070B582B0114C12492046FFF779
:1015B00087FE11492046FFF7FDFD7D20C100012572
:1015C00020462A46FFF774FE009500262046314645
:1015D00032463346FFF760FE204631462A46FFF783
:1015E0004DFE064885600221016002B070BDC04614
:1015F00000400840301D0000341D0000005108402C
:10160000B0B582B0104C11492046FFF759FE104981
:101610002046FFF797FD7D20C100002520462A4681
:10162000FFF746FE0095204629462A462B46FFF73F
:1016300033FE204629462A46FFF720FE05480121B1
:101640008160016002B0B0BD002086403C1D0000FA
:10165000401D00000031864070B582B0114C124927
:101660002046FFF72DFE11492046FFF76BFD7D2038
:10167000C100022520462A46FFF71AFE00950026E3
:101680002046314632463346FFF706FE20463146B5
:101690002A46FFF7F3FD064801218160042101601D
:1016A00002B070BD00008640481D00004C1D0000C7
:1016B000001186401148002101600320C1431048F9
:1016C000021F13680B401360426801218A43426085
:1016D0000A02436893434360026830239A430260DE
:1016E00002680F239A430260FF200002054A136834
:1016F00083438803181810607047C04608030B40E6
:1017000004010B4000E400E0084809494160FF2162
:101710000906084A13688B43032189075918116089
:1017200000218160072101607047C04610E000E0A1
:10173000FF7C000020ED00E010B5124C124920465D
:10174000FFF7F0FD11492046FFF7C8FD0320C10354
:101750000F4802688A43026001690E4A0A40D0328B
:101760000261416915220A432A218A434261416884
:1017700001221140436893435918416001681143A5
:10178000016010BD00801040541D0000561D000077
:10179000009110400000FFFF80B500F021F8FFF736
:1017A0008FFEFFF787FFFFF72BFFFFF755FFFFF7D0
:1017B000CDFEFFF7F7FEFFF7BFFFFFF7A5FFB8204D
:1017C000044900220A5404490A54742003490A5463
:1017D00080BDC046B4012020F800202080002020D9
:1017E000F0B581B00D480E4941600E4A51600E4B74
:1017F00059600E4C61600E4D69600E4E71600E4F67
:1018000079600E49016011601960216029603160C2
:1018100039601020FFF790FC01B0F0BD00080A40CD
:10182000030000B100280A400028864000088640D6
:1018300000888640004808400088104001000026CB
:1018400002480168491C01607047C04670022020B0
:10185000FFF7A2FFFFF782FDFFF7C4FDFFF7C0FD12
:10186000FFF79AFD0B4802210160BFF34F8FBFF3D2
:101870006F8F09A0FFF7D4F87D20C000FFF772FD3D
:101880000C4C5D200146FFF7C5FD2046FFF76AFDC1
:10189000F7E7C04680E100E0536D61727420436158
:1018A000722053797374656D205374617274696E1C
:1018B000670D0A008813000043088B421AD30022E8
:1018C00003098B4279D3030A8B425ED3030B8B420D
:1018D00042D3030C8B4227D30902FF2212BA030C16
:1018E0008B4202D31212090203D0030B8B4233D373
:1018F0001AE0D3E0411A8041401C704703460B4375
:1019000071D443088B42F5D3002203098B4254D390
:10191000030A8B4239D3030B8B421DD3030C8B423A
:1019200002D394466EE0090AC30B8B4201D3CB036A
:10193000C01A5241830B8B4201D38B03C01A524110
:10194000430B8B4201D34B03C01A5241030B8B4212
:1019500001D30B03C01A5241C30A8B4201D3CB02FD
:10196000C01A5241830A8B4201D38B02C01A5241E2
:10197000430A8B4201D34B02C01A5241030A8B42E5
:1019800001D30B02C01A5241CDD2C3098B4201D3FD
:10199000CB01C01A524183098B4201D38B01C01A7B
:1019A000524143098B4201D34B01C01A52410309F2
:1019B0008B4201D30B01C01A5241C3088B4201D3A1
:1019C000CB00C01A524183088B4201D38B00C01A4E
:1019D000524143088B4201D34B00C01A5241411A75
:1019E000524110007047CA0F00D04942031000D383
:1019F0004042534000229C4603098B422DD3030AE8
:101A00008B4212D38901FC2212BA030A8B420CD3F7
:101A1000890192118B4208D3890192118B4204D320
:101A2000890137D0921100E08909C3098B4201D3A3
:101A3000CB01C01A524183098B4201D38B01C01ADA
:101A4000524143098B4201D34B01C01A5241030951
:101A50008B4201D30B01C01A5241C3088B4201D300
:101A6000CB00C01A524183088B4201D38B00C01AAD
:101A70005241D9D243088B4201D34B00C01A524184
:101A8000411A00D201465241104663465B1000D312
:101A90004042704763465B1000D3404201B50021CD
:101AA000004201D0C9430846C046C04602BD10B539
:101AB00000F04EF8EFF30080800001D5012010BD4A
:101AC000002010BD70B50125ED0704004C4020D466
:101AD000441A01D2001B0919C60D4B00F2B2FF2AAD
:101AE00029D01B0E2CD000020C0228432C43D31A01
:101AF000DC40051910D2280A02D3401C6D0611D013
:101B0000761EF6058019FF2A00DA70BDC00DC005EB
:101B100070BD694000F0A4F801200543C541521C86
:101B2000761CE8E764089C40C90161408900E7D160
:101B30000124A043E4E71B0E440200D0034870BD1B
:101B4000002AFCD1C00FC00770BD00BF0000C07FDD
:101B50000123DB0502000A430DD4DA4203D49A4282
:101B600007D488427047D84214D4D94212D488424C
:101B7000704780427047DA4203D59A42F9D58142D4
:101B800070475B004200DA4204D24A00DA4201D2D6
:101B90008142704710B5024AFEF78EFE10BD00BFAD
:101BA0000900130470B5420064414B005C41120E01
:101BB00039D01B0E38D0FF2A3CD0FF2B3AD0D21898
:101BC0007F3A40024902400A490A4518ED010600E1
:101BD0004E43000A090A48430104731A4019190CBC
:101BE0004318990F04D05B08012149075B1A521C66
:101BF000D80904D3401CF50301D19D0607D0FF2A64
:101C000008D2D50506D0E4072043401970BD012550
:101C1000A843F4E7002A01DCE00770BD2402FF209E
:101C20002043C00570BD1B0EFF2A03D0FF2B01D03F
:101C3000E00770BDFF2636064500B54206D84D00C8
:101C4000B54203D8D218FF2A00D0E7E7004870BD9C
:101C50000000C07F70B50125ED0704004C4022D480
:101C6000441A02D26C40001B0919C60D4B00F2B297
:101C7000FF2A4BD01B0E50D000020C02A8432C436D
:101C8000D31ADC40051B05D5AD0019D36D08761EAF
:101C9000521E37D0F605280A01D2801970BD704156
:101CA0006D0603D070BD6940FFF712FF9C4009022A
:101CB0006140490001D0401E70BD0124A04370BDA9
:101CC0006D081DD001202B0C01D12D0410302B0EDE
:101CD00001D12D0208302B0F01D12D01001DAB0FBA
:101CE00001D1AD00801CEB0F01D16D00401C361AF4
:101CF000121A6D00680AF5054019012A02DB70BD51
:101D0000002070BDC036300AC00770BD1B0E4402F3
:101D100001D1FF2B00D1024870BD002AF0D070BD68
:101D20000000C07F08072700E80300000001000052
:101D300008072700E803000000010000080727004B
:101D4000E80300000000010008072700E803000086
:101D50000001010008000000180000000030000031
:101D600030313233343536373839414243444546D1
:101D70000000000000000000881D0000000020207E
:081D80007803000008010000D7
:04000005000000C136
:00000001FF
