:020000040000FA
:10000000580320204D010000510100005301000061
:1000100000000000000000000000000000000000E0
:10002000000000000000000000000000550100007A
:10003000000000000000000057010000D10900008E
:100040005B0100005B0100005B0100005B01000040
:100050005B0100005B0100005B0100005B01000030
:10006000000000005B0100005B01000000000000D8
:10007000000000005B0100005B0100005B0100006C
:100080005B0100005B0100005B0100005B01000000
:100090005B0100005B0100000000000000000000A8
:1000A0005B0100005B010000000000000000000098
:1000B0005B010000000000005B0100005B0100002C
:1000C00000F002F800F032F80CA030C8083824180C
:1000D0002D18671EA246AB4654465D46AC4201D180
:1000E00000F024F87E460F3EB6460FCC0126334280
:1000F00000D0FB1A3343A246AB461847C40A00009F
:10010000D40A00000000000000230024002500267F
:10011000103A01D378C1FBD8520700D330C100D5C3
:100120000B6070471FB51FBD10B510BD00F027F85C
:100130001146FFF7F7FF00F053FC00F03FF803B45F
:10014000FFF7F2FF03BC00F045F800000648004747
:10015000FEE7FEE7FEE7FEE7FEE7FEE703480449A9
:10016000024A044B70470000C100000058022020E2
:10017000580320205802202070477047704775466A
:1001800000F024F8AE46050069465346C008C0009A
:10019000854618B020B5FFF7E1FF60BCB6460026E3
:1001A0000027C0C5C0C5C0C5C0C5C0C5C0C5C0C585
:1001B000C0C5403D490849008D46704710B504460A
:1001C000C046C0462046FFF7BAFF10BD0048704742
:1001D0000000202001491820ABBEFEE726000200E7
:1001E0007047801E001F00BFFCD2704770B582B000
:1001F0000B794A79002A24D0174A21242401202B84
:1002000000D070348218002B00D18824156C404E29
:1002100035402D191564556C35402C1954641468FB
:100220003E4D2C40146054682C40546000241462ED
:1002300054628F24E443156D25401565556D2540A6
:1002400055656A4613718B7953710968009111469F
:1002500000F004F802B070BD38180000F0B52A4A6A
:1002600082182A4BC318087920280DD000281DD1E8
:100270000C68641E5460D56E254C25408835D566C3
:100280001646703688251DE00C68641E5460D46ED6
:100290001F4D2C401F4EA419D466146F2C40A41976
:1002A0001467012465071C4C16460BE00C686408B3
:1002B0005460D66E164C26400525ED017619D6669B
:1002C00016467036376827402F433760D46A134D7F
:1002D0002C40D462146B2C4014630024D464146545
:1002E0008F24E443D56F2540D5671D6825401D60E8
:1002F00049790143BD2008401168094B0B40C018E3
:10030000801C1060F0BDC046041800008418000076
:1003100024F93FF001040000FFFFFFCF8888FDFFB4
:100320004000FFCF10B507239B04194092008018AE
:10033000024A84589C436118815010BD3018000057
:1003400010B5029CA400001911431943014A8150C1
:1003500010BDC0465018000092008018014A81501C
:100360007047C0461018000010B501221203831810
:100370000C789C604B7883508978014A815010BD7D
:100380000C110000B0B51122120283580124A343BE
:1003900083508B780C881C438B882343094C1C406A
:1003A0008358094D1D402B1983508B79CC791C4300
:1003B000097A21437E231940801842689A435118D4
:1003C0004160B0BD18670000E798FDFF10B501223D
:1003D000120383180C789C604978815010BD00008E
:1003E0000D480021016070470B490A680B689B1A91
:1003F000834210D220BF0B689B1A83420BD220BFCE
:100400000B689B1A834206D220BF0B689B1A83425B
:1004100001D220BFEAE77047500220207047000059
:10042000B0B50B480168026803680124250600681E
:1004300028402502D20A2A404903C90F511808183A
:1004400021041A090A40811802484840B0BDC0463C
:1004500080330A400101010170B506468E48002430
:1004600021462246FFF778FF642E00D364260A2532
:1004700075438A4802222946FFF76EFFAE4821469F
:100480002246FFF769FFC34801222946FFF764FFB0
:1004900070BDC046B0B57D20C400D44800252146BB
:1004A0002A46FFF759FF7D4802222146FFF754FFF5
:1004B000A14821462A46FFF74FFFB64801222146B0
:1004C000FFF74AFFB0BDC046B0B5642800D3642032
:1004D0000A254543C548002429462246FFF73CFF2C
:1004E000D94802222146FFF737FF93482946224682
:1004F000FFF732FFA74801222146FFF72DFFB0BDCD
:1005000010B5BA48002421462246FFF725FFCE4801
:1005100002222146FFF720FF874821462246FFF7A7
:100520001BFF9C4801222146FFF716FF10BDC04665
:10053000B0B5642800D364200A244443AB480025A6
:1005400021462A46FFF708FFBF4802222946FFF747
:1005500003FF794829462A46FFF7FEFE8D4801220F
:100560002146FFF7F9FEB0BD70B505469F4800244F
:1005700021462246FFF7F0FE642D00D364250A26AB
:100580006E43B14802223146FFF7E6FE6A48314623
:100590002246FFF7E1FE7F4801222146FFF7DCFEFD
:1005A00070BDC04610B59148002421462246FFF791
:1005B000D3FEA54802222146FFF7CEFE5E48214623
:1005C0002246FFF7C9FE734801222146FFF7C4FE09
:1005D00010BDC046F0B581B00F4606466420642EBB
:1005E00000D3064600900A25294671437F4800241F
:1005F0002246FFF7B1FE944802222146FFF7ACFEE7
:10060000642F00D3009F7743B80822494143480C28
:10061000301AC0B245437D20C000854200D3054654
:10062000454829462246FFF797FE5A4801222146AF
:10063000FFF792FE01B0F0BD70B504466420642C53
:1006400000D30446642900D3014661438808114958
:100650004143480C201AC1B20A2569437D20C000DD
:10066000814200D30146614800263246FFF774FEFE
:10067000754802223146FFF76FFE65432E48294632
:100680003246FFF769FE434801223146FFF764FE18
:1006900070BDC0467B1400000020864000008640EC
:1006A0000E488721816001214A040D4B1A6088227F
:1006B0000260CA031A60862242624A051A608522D5
:1006C000426409061960074982224A60064A0A60A4
:1006D0000649C1610162C162C163704794804240B2
:1006E000D0120A40088042408200040081000500C8
:1006F000B0B582B0104C11492046FFF735FE1049C5
:100700002046FFF7ABFD7D20C100002520462A468C
:10071000FFF722FE0095204629462A462B46FFF782
:100720000FFE204629462A46FFF7FCFD0548012119
:100730008160016002B0B0BD00808640840B000083
:10074000880B00000091864070B582B0114C1249B0
:100750002046FFF709FE11492046FFF77FFD7D2067
:10076000C100012520462A46FFF7F6FD0095002628
:100770002046314632463346FFF7E2FD20463146F9
:100780002A46FFF7CFFD064885600221016002B0CE
:1007900070BDC04600400840900B0000940B000064
:1007A00000510840B0B582B0104C11492046FFF707
:1007B000DBFD10492046FFF719FD7D20C100002513
:1007C00020462A46FFF7C8FD0095204629462A46BE
:1007D0002B46FFF7B5FD204629462A46FFF7A2FD26
:1007E000054801218160016002B0B0BD0020864053
:1007F0009C0B0000A00B00000031864070B582B059
:10080000114C12492046FFF7AFFD11492046FFF772
:10081000EDFC7D20C100022520462A46FFF79CFD05
:10082000009500262046314632463346FFF788FDC4
:10083000204631462A46FFF775FD064801218160B2
:100840000421016002B070BD00008640A80B0000CA
:10085000AC0B0000001186400D4800210160032010
:10086000C1430C48021F13680B401360416801220A
:1008700091434160110242688A434260016830221C
:100880009143016001680F22914301607047C046A7
:1008900008030B4004010B40084809494160FF214F
:1008A0000906084A13688B43032189075918116008
:1008B00000218160072101607047C04610E000E020
:1008C000FF7C000020ED00E010B5124C12492046DC
:1008D000FFF77CFD11492046FFF754FD0320C103BB
:1008E0000F4802688A43026001690E4A0A40D0320A
:1008F0000261416915220A432A218A434261416803
:100900000122114043689343591841600168114323
:10091000016010BD00801040B40B0000B60B000059
:10092000009110400000FFFF80B500F021F8FFF7B4
:10093000B7FEFFF791FFFFF735FFFFF75FFFFFF708
:10094000D7FEFFF701FFFFF7BFFFFFF7A5FFB820B6
:10095000044900220A5404490A54742003490A54E1
:1009600080BDC04694012020D800202060002020B7
:10097000F0B581B00D480E4941600E4A51600E4BF2
:1009800059600E4C61600E4D69600E4E71600E4FE5
:1009900079600E4901601160196021602960316041
:1009A00039601020FFF71DFC01B0F0BD00080A40BF
:1009B000030000B100280A40002886400008864055
:1009C000008886400048084000881040010000264A
:1009D00002480168491C01607047C046500220204F
:1009E000FFF7A2FFFFF7FCFCFFF78AFDFFF716FDFC
:1009F000624CFFF715FD00F005F82046FFF7F4FC08
:100A0000F7E7C046F0B585B014200290FFF75CFD13
:100A10007D20049084002046FFF7E6FC1920FFF7B4
:100A200053FD2046FFF7E0FC1E20FFF74DFD20465A
:100A3000FFF7DAFC2320FFF747FD2046FFF7D4FC41
:100A400028200390FFF740FD2046FFF7CDFC2D2026
:100A5000FFF73AFD2046FFF7C7FC32263046FFF786
:100A600033FD2046FFF7C0FC3720FFF72DFD204661
:100A7000FFF7BAFC3C273846FFF726FD2046FFF774
:100A8000B3FC4120FFF720FD2046FFF7ADFC4620D8
:100A9000FFF71AFD2046FFF7A7FC4B20FFF714FDD8
:100AA0002046FFF7A1FC50252846FFF70DFD204604
:100AB000FFF79AFC2846FFF707FD3048FFF794FC44
:100AC00001963046FFF700FD0498C5002846FFF761
:100AD0008BFC0298FFF7F8FC2846FFF785FCFFF730
:100AE00061FD2846FFF780FC3846FFF7EDFC2846FD
:100AF000FFF77AFC38463146FFF76CFD2048FFF7D8
:100B000073FC3846FFF7E0FC2846FFF76DFC3846DB
:100B10003146FFF791FD1A48FFF766FC3846FFF7AC
:100B2000D3FC2846FFF760FCFFF73CFD2046FFF7AB
:100B30005BFC039E3046FFF7FBFC2846FFF754FCA6
:100B40003046FFF711FD2846FFF74EFCFFF72AFD60
:100B50002046FFF749FC0198FFF77EFC049804014A
:100B60002046FFF741FCFFF795FC2846FFF73CFCC9
:100B70002046FFF739FC05B0F0BDC04688130000E1
:100B8000DC05000008072700E80300000001000062
:100B900008072700E80300000001000008072700FD
:100BA000E80300000000010008072700E803000038
:100BB00000010100080000001800000000300000E3
:100BC000D00B0000000020205803000008010000A6
:04000005000000C136
:00000001FF
