:020000040000FA
:10000000A00420206D0100007101000073010000B8
:1000100000000000000000000000000000000000E0
:10002000000000000000000000000000750100005A
:10003000000000000000000077010000A52C000077
:100040007B0100007B0100007B0100007B010000C0
:100050007B0100007B0100007B0100007B010000B0
:10006000000000007B0100007B0100000000000098
:10007000000000007B0100007B0100007B0100000C
:100080007B0100007B0100007B0100007B01000080
:100090007B0100007B010000000000000000000068
:1000A0007B0100007B010000000000000000000058
:1000B0007B010000000000007B0100007B010000CC
:1000C00000F002F800F042F80CA030C808382418FC
:1000D0002D18671EA246AB4654465D46AC4201D180
:1000E00000F034F87E460F3EB6460FCC0126334270
:1000F00000D0FB1A3343A246AB461847A45E00006B
:10010000C45E000000000000103A02D378C878C135
:10011000FAD8520701D330C830C101D504680C6049
:100120007047000000000000002300240025002686
:10013000103A01D378C1FBD8520700D330C100D5A3
:100140000B6070471FB51FBD10B510BD01F030F931
:100150001146FFF7F7FF03F07BF901F048F903B40C
:10016000FFF7F2FF03BC01F0A3F9000006480047C7
:10017000FEE7FEE7FEE7FEE7FEE7FEE70348044989
:10018000044A054B70470000C1000000A002202077
:10019000A0042020A0032020A0032020034610B5A7
:1001A0000B439B070FD1042A0DD308C810C9121F97
:1001B000A342F8D018BA21BA884201D9012010BD53
:1001C0000020C04310BD002A03D0D30703D0521C27
:1001D00007E0002010BD03780C78401C491C1B1B55
:1001E00007D103780C78401C491C1B1B01D1921EBF
:1001F000F1D1184610BD0000002203098B4273D3D1
:10020000030A8B4258D3030B8B423CD3030C8B4223
:1002100021D312E003460B437FD4002243088B42D4
:1002200074D303098B425FD3030A8B4244D3030B7D
:100230008B4228D3030C8B420DD30902FF2212BA42
:10024000030C8B4202D31212090265D0030B8B42BE
:1002500019D300E0090AC30B8B4201D3CB03C01AA8
:100260005241830B8B4201D38B03C01A5241430B83
:100270008B4201D34B03C01A5241030B8B4201D373
:100280000B03C01A5241C30A8B4201D3CB02C01ADE
:100290005241830A8B4201D38B02C01A5241430A56
:1002A0008B4201D34B02C01A5241030A8B4201D345
:1002B0000B02C01A5241CDD2C3098B4201D3CB01EC
:1002C000C01A524183098B4201D38B01C01A52419B
:1002D00043098B4201D34B01C01A524103098B429F
:1002E00001D30B01C01A5241C3088B4201D3CB008A
:1002F000C01A524183088B4201D38B00C01A52416D
:1003000043088B4201D34B00C01A5241411A00D21C
:1003100001465241104670475DE0CA0F00D0494285
:10032000031000D3404253409C46002203098B42F5
:100330002DD3030A8B4212D38901FC2212BA030A7D
:100340008B420CD3890192118B4208D389019211FF
:100350008B4204D389013AD0921100E08909C30984
:100360008B4201D3CB01C01A524183098B4201D386
:100370008B01C01A524143098B4201D34B01C01A71
:10038000524103098B4201D30B01C01A5241C308E9
:100390008B4201D3CB00C01A524183088B4201D358
:1003A0008B00C01A5241D9D243088B4201D34B0073
:1003B000C01A5241411A00D20146524110466346CA
:1003C0005B1001D34042002B00D549427047634681
:1003D0005B1000D3404201B50449002802DC491CEF
:1003E000084000E00846C046C04602BDFFFFFF7F50
:1003F00070477047704700000246C80FC00781432E
:100400004B0030B54B405B009B0D20D01923DB0621
:10041000C91801231B05994220DB0324A4070425E6
:100420001346AB400BD3002B04D1EB0613409B00CB
:10043000E34204D401246407002312195941FF2325
:100440001B0599420BD2C9000143500F09E0CB02B2
:1004500004D501430803024305D0054830BDFF2100
:10046000C905084330BD084607210905884330BD4A
:100470000000C07FF0B50C46871A9C410D46861AD5
:100480009D4103D2C01BA141D21963410D0D1F0D27
:10049000C94EEC1BAE435CD07F057F0D0026002FBC
:1004A00051D02D05AC46A943DD020123ED0A1B0501
:1004B0001D4320231B1B24D41746E74038187141E5
:1004C0002F46E740CC199D402818314661410C0D5C
:1004D00027D161449A4013D50023401C5941520052
:1004E0000ED14008400001224B005205D34207D3F1
:1004F00005204007C14201D5B04900E0B04930466F
:10050000F0BD6B00002A00D001229A181F23203C66
:100510001B1B01D5002302E0E540281871410C0D9A
:10052000D7D0012424050919C407CD07400849087C
:10053000E40F28436144002CD5D00024401C6141C5
:100540009A40D0D1CDE76A05520DD9D1C90FC9075C
:10055000D5E79C4D4E00002801D0012400E0002486
:1005600034195F00002A01D0012600E00026BE19E0
:10057000954FAC420CD8AE420AD8B44206D0012501
:100580006D05EC42BCD010461946F0BD9942FCD036
:1005900000203946F0BDF0B51FB40C460F46811A55
:1005A0009F412546861A9D4106D20125ED076F40E1
:1005B000401ABC4152187B41210D1E0D8D1BAC46CB
:1005C0007D4D8D437ED075056D0D7CD00D05AE46FD
:1005D000AC431B031B0B794D52429D4120236646C1
:1005E0009B1B14D31746F74038180026009074411F
:1005F00060462F460741E41900989D40281866413F
:1006000016D4714671189A4025D5012320E093181D
:100610002A466A415200002B00D0521C1E23203E65
:100620009B1B002B61DD3541EE1728186641E8D58C
:10063000001876415B1C9A4000D3401C4B05F31810
:100640001524E34010D3002B52D071467118D30FFC
:10065000C01802D3491C05B0F0BD0123DB079A4244
:10066000F9D140084000F6E701225205B21801D145
:10067000002853D00123CC0ADB029943891E002AAB
:1006800008D1020C03D0020C0004103902E002462B
:10069000002020390023550B05D112020823550BE9
:1006A00001D152010D23550C01D112011B1DD50C96
:1006B00001D192009B1C150D01D152005B1C20251D
:1006C000EE1A01E02CE022E00546F5401543984083
:1006D000CA1AE10769181305C918002ABBDA0320F2
:1006E00040070818C10FC9070FE071466118B2E74B
:1006F000F10740080843711071444A000CD00123EF
:100700005B059A42A7D2C90FC9070020A3E7490594
:10071000490D26D1002001E00028F4D100219AE7FC
:10072000284D6600002801D0012100E00021711849
:100730005F00002A01D0012600E00026BE19224FEA
:10074000A94210D8AE420ED8B14208D001256D059D
:10075000E94206D01946A802414010467BE79C4278
:1007600001D0214677E70020394674E710B50C46E2
:100770005C4005D50124E4076340FFF70CFF10BD82
:10078000FFF778FE10BD30B40C465C4004D5012460
:10079000E407634030BC6DE630BCFCE670B5012474
:1007A000E40761400D465D4002D4FFF763FE70BD73
:1007B0006340FFF7F0FE70BDFF0700000000F0FF90
:1007C0000000F07F0000E0FF0000F87FF0B5F94D79
:1007D0000C091E092C402E402F468BB0A7437DD01C
:1007E000B543FCD0002E7AD0002CFCD00D465D40E5
:1007F000ED0F2543AC1BFF25AD0464190894C50219
:10080000440DC9022143500DDC0204430120C007FE
:1008100001430443D2020191200C110C00958C4637
:10082000010423468B430A9161460904E24D8A4341
:100830000991010A7D4449198039097805464D43DB
:1008400001266D18F605751B6943C90C640B891CDC
:100850004C436418B5012C1B250C2E04B4434C43A7
:100860004D43210C691889090591009DE90701D0C4
:100870000121C90704912C4601996708CD072F4330
:100880004C08059DE10B4D432D0C294666467543EA
:1008900002950D4645432E46029D7D1BB4410095B1
:1008A0000D465D4301942C0C2F040D465543AE4676
:1008B0002D0C3D43029503947546049C2D04641B46
:1008C000049406D2029C039D641C00267541039586
:1008D000029401AC70CC009F7D1B01E03EE162E11F
:1008E000B44109040095079101940599A408614356
:1008F000090C0C464443650BE7040C4666467443FA
:10090000A646640B3C43039502947446049DE4049C
:100910002C1B049406D2029C039D641C0026754186
:100920000395029401AC70CC009F7D1BB4410194EF
:100930000C465C430095650FE7000C465443A64601
:10094000640F3C43039502947446049DE4002C1B01
:10095000049406D2029C039D641C002675410395F5
:10096000029401AC70CC009F7D1BB441AE09AF0670
:10097000049DC900AD092F43049DA406AD0604954E
:10098000079D344369180791059DE10B4D432D0CDC
:1009900029466646754302950D4645432E46029DFF
:1009A0007D1BB44100950D465D4301942C0C2F0432
:1009B0000D465543AE462D0C3D43029503947546B6
:1009C000049C2D04641B049406D2029C039D641CA9
:1009D000002675410395029401AC70CC009F7D1BED
:1009E000B44101948C050694079C890A611800950E
:1009F0000791019C0599A4086143090C0D464543E4
:100A0000680BEF040D46644665436C0B3C43049F42
:100A1000ED047D1BAC4602D20025641C6841009E9B
:100A2000019D371B85410846584301950C46460FEA
:100A3000C5005443600F28436546E4002C1B02D2D6
:100A40000025401C6E41019D3F1AB5412846BD0955
:100A5000800628438446A009BF064E020699A406D4
:100A600076180743079D002068410A9907901943AB
:100A70000020099B00906046FF1913434041E20F9C
:100A800064003A43A4460446D71A8C41A04203D9D5
:100A90000120009020463A46C70F94184041624614
:100AA000D20F2243644664000494009CBE46640056
:100AB000D71AA446044602978C417746002F01D1ED
:100AC000A04204D96046401C8446029A2046C40FC6
:100AD000A64694184041049A0546D20F2243644624
:100AE0006400D31A8D417146002901D1A84202D970
:100AF00028461A46641C10430122002800D01643E1
:100B000061020020079B891904465C410223002CE6
:100B100002DB491813466441089DCE0A2D145D1965
:100B20004B056705E10A2C050D1908993E43C907D5
:100B30006940002B08D0934006D30022761C514117
:100B4000002B01D1760876001C4A002D43DB1542AC
:100B500041D0AA433FD030460BB0F0BD06180D4639
:100B60004D41174C7642AC411AD395181C465C4156
:100B7000134A6D42A24113D3012252054C00D442C4
:100B80000AD15C00D4420BD04B4002D592021143F3
:100B9000E2E749004908DFE75940C90FC90718E0F3
:100BA00000200849D8E7054801420DD10342F7D09B
:100BB000F2E700000000FF078C4800000000F07F13
:100BC0000000E0FF0000F87F114859400143C012C7
:100BD00041400020C0E70123089A9B069A4205DCA9
:100BE000032252078918C90FC907B5E70522520722
:100BF0008918074A1143D2125140ADE770B5154626
:100C00001C4602460B4628462146FFF7DFFD70BD15
:100C1000FFFFFF7F30B50346CA02400D1043164D5B
:100C2000164C0A1502D02043002A06DBAA1A002A15
:100C300012DDD040FF2A0BDC30BD5205520D01D130
:100C400040004008AA1A07D4D0404042FF2A01DDE4
:100C5000002030BD0028FCDD4A00002B01D001201F
:100C600000E00020101801225205D042F0D8C81729
:100C7000C043604030BD00001E0400000000008042
:100C8000F0B58B4C0F09254689B0BD437BD01D09BB
:100C90002646AE43FAD00E465E402740F60F3E434E
:100CA000254071D024012142FBD0FF24AD19A404BA
:100CB0002D1B039501252D05DB02DB0AC9022B4301
:100CC000C90A29431E010901040F130F050121431D
:100CD0001701880B820391432D098C46A90B1E43F3
:100CE0008A039543B30B9A0396433F09BA0B9403C7
:100CF000A74302962E467E430497B6464E19D7194F
:100D00000C460196544305977E43371B7646BF1B1E
:100D10003601B646BE0B361900967646BC04371926
:100D2000009C01D3641C00946400002F01D00126B4
:100D30003443029E049F754366467E4304967600C4
:100D400034196E0034190094029C019E1C196643EC
:100D5000751BAE46069465464519059C05956C4382
:100D6000594375460891691A0191049E0146514301
:100D7000A41B0491611A009C0791E10605D061094A
:100D80000122114302E072E06EE06109089D002734
:100D90002C0A2D066918049D7C412A0A2D06691823
:100DA000019D6241AC0DAD026D185441079A910D41
:100DB000920255196141029A644658435443069B76
:100DC000059A5A43121A131B9A0E9B015B187A411B
:100DD000010B0005C3185141220A200644195A414B
:100DE0009A4200D2491C01204002814203D31523BC
:100DF0000226F64302E014230326F6432020C51AF8
:100E0000A9401746AF40DA400A4320460399D8402C
:100E10000914731819055118039A3843D207514021
:100E2000AC4009D00122944006D30022401C51411D
:100E3000002C01D1400840001E4A934212D30122E7
:100E400003989206904207DB0520400709181A48CC
:100E50000143C012414004E0032040070818C10FBD
:100E6000C907002009B0F0BD0020F107FAE7051816
:100E70000C464C4111486D42A04115D394181A46B6
:100E80005A410E48644290410ED301204A00400569
:100E9000824209D35A00824206D35940C90F084AF8
:100EA000C90700201143DDE700200649DAE700000A
:100EB0000000FF07FE070000FFFFFF7F0000E0FFCC
:100EC0000000F07F0000F87F0121C90501234118CF
:100ED00042001B06D3185B0E0AD0C1100722D206AF
:100EE000891840075242D14201D5520089187047F3
:100EF000090208D50146002A03D0C10FC907002006
:100F0000704710467047420202D0002002497047E5
:100F1000072109050143F4E70000F87FF0B5FF253C
:100F20002D04C609C209FF2704462E400137CB090C
:100F30003E4348402A402B400746002A6BD0002BF6
:100F400069D0AA4267D0AB4265D0002800DA3246A9
:100F50000125ED0529432C4309022002090AD21A72
:100F60004B0C7F24E31A434C000A7C44E35C7D2451
:100F70002404121914145B00A218884201D3521CD5
:100F800000E0400049420C465C4324115C43DB0115
:100F90006415E318040A5C43C502200D0C46444363
:100FA0006419250A5D432303EC0C0D4665430003D9
:100FB0000019EB184C42A34201D35B18401CD40526
:100FC0002018002B07D05B00C91804D3401C00294F
:100FD00001D1400840003F2189048A4209D3002AF8
:100FE00008DC1106090F04D0032149074018C00F7F
:100FF000C007F0BD01224100120689187F22520667
:101000009142F6D205214907C84201D59010F0BDA2
:10101000FF20C005F0BD002F00DA32461648AA4274
:1010200007D2AB4205D21902090E17D0F80FC0073C
:10103000F0BDFF2563002D06AB42F9D84900A94257
:10104000F6D8AB4201D1A942F2D0A94201D1002188
:1010500001E061004908D0050843F0BD1102090E06
:10106000FBD0FF200243D005F0BD0A4601461046E2
:1010700054E70000D64100000000C07F10B50146D3
:101080009E240002CA15A307002A02D01843002A92
:1010900004DBA21A002A0CDDD04010BD1206120E8D
:1010A00001D140004008A21A03D4D0404042002899
:1010B000F3DDFF2248001206904201D9002010BD46
:1010C000C817C043584010BD1F22030C02D10F2285
:1010D00000041CD0030E01D10002083A030F01D115
:1010E0000001121F830F01D18000921E002801DB36
:1010F0004000521ED2055118021251181922904078
:1011000004D3491C002801D149084900084670470A
:10111000C10FC90700D04042012292071143D3E713
:1011200001218907D0E710B500F038F8006810BD3C
:1011300010B5044600F032F8046010BD70B50546E5
:101140004800440D124B0020002C0AD0634008D008
:101150009A4206DA6642B24203DD12054019514155
:1011600070BD002C08D0002B09D0C90FC907002A78
:10117000F6DB084A114370BDC90FC90770BD284688
:101180000A03104302D00020034970BD284670BDF9
:10119000FF0700000000F07F0000F87F0048704764
:1011A00038002020F8B5264C4E00069DA6420AD8ED
:1011B000A64201D1002806D15E00A64203D8A6426D
:1011C0000AD1002A08D00D242404254233D0294610
:1011D000002000F014F9F8BD0C461C4311D49942CC
:1011E00007D0C81A02D3EFF30080F8BDEFF30080F8
:1011F000F8BD801A02D3EFF30080F8BDEFF3008052
:10120000F8BD09242407E5008B4207D0581A02D301
:10121000EFF3008006E0EFF3008007E0101A03D33D
:10122000EFF30080A04303E0EFF30080A0432843E6
:1012300080F30088F8BD009500F0F8F8F8BD0000D4
:101240000000E0FFF0B53D4B02460C461C4000207C
:10125000002C63D03A4D8B4366D000296BDB0B0D1D
:101260001D05A94301252D0529430124FD33E34034
:1012700001D392184941FF3381339C468B02940D70
:101280000121234389074C42920200271B198C102D
:101290005D1A04D42D1B02D42B46650049199218FF
:1012A0005B416408F4D15C1A08D40125ED07EE1700
:1012B0005519744102D42A462346491C94185B41AF
:1012C000012292071D46E61B8D4106D4B61A8541C0
:1012D00003D42B46550034467F1924195B4152082C
:1012E000802AEFD1234300D0022338460A22D0407F
:1012F00001D3012213438A0510436246890A12056D
:101300008918002B09D00122D34002D30022401CAF
:101310005141002B01D140084000F0BD0B031343A5
:1013200007D0C90FC907F0BD0803104303D1002936
:1013300001DB1046F0BD00202946F0BD0000F07F23
:101340000000F87F10B5FF231B0644009C421DD807
:101350004C009C421AD80346124A0B4307D4401A49
:1013600002D3EFF3008010BDEFF3008010BD081A28
:1013700003D3EFF30080904305E0EFF300800121F9
:101380009043C907084380F3008810BD0D231B0458
:101390001A4204D01146002000F031F810BD00F0D0
:1013A0004FF810BD00000090004870473800202022
:1013B0007546FFF7F9FFAE46050069465346C0087B
:1013C000C000854618B020B5FEF7D8FE60BCB64612
:1013D00000260027C0C5C0C5C0C5C0C5C0C5C0C5A2
:1013E000C0C5C0C5403D490849008D46704710B58D
:1013F0000446C046C0462046FEF7B1FE10BDC802F6
:1014000012D54803400F002804D0C803C04301216F
:1014100088407047EFF300800001000903210907AD
:10142000084380F3008870470020704710B5002003
:101430000249029A00F00CF810BD00000000F87F8D
:1014400010B5024800F004F810BD00000000C07F95
:1014500010B50C461107090F092904D00A290AD032
:1014600008290CD104E011460820FFF7C8FF06E068
:10147000510606D501E0510601D50120C0072146DD
:1014800010BDD10607D501010909CC084907000E96
:101490000006044309E0410F20024907000A014306
:1014A000200E00061D22D14101430846E7E7000057
:1014B00001491820ABBEFEE726000200704700007D
:1014C00083B0F0B588B005460DA80EC00DA80490F5
:1014D0007D20C00003901A4E1A4F03E0304600F002
:1014E0007BFC651C2978252908D0002900D165E3FB
:1014F000304600F071FC2C466D1CF3E76C1C6878DC
:1015000001466339152900D96BE04900794489887F
:1015100049008F4419001E006A006C006A006A00CE
:101520006A006A006A00CC006A006A006A006A0009
:101530006A006A001C016A0030016A006A007701D3
:1015400000801040D75E00000498011D04910178CE
:10155000C4E70498011D049101680029029400D198
:10156000EBE1C817019141400D1A00240A272846D3
:10157000394602F07BFF4743E91B3027394305AA70
:1015800011550A2D00D2E9E10A21FEF735FE05A822
:10159000001939434170642D00D2E1E164212846ED
:1015A00002F064FF0A21FEF727FE05A8001939435F
:1015B000817003998D4200D2D6E1284602F056FF91
:1015C0000A21FEF719FE05A800193943C170284603
:1015D000F44F394602F04AFF241DBD420546C5D2EC
:1015E000C3E1252801D1252178E72521AFE1049821
:1015F000C11D0720814308460830049003C9FEF747
:10160000FBFE07460025294603F0B4F8002806D162
:101610002D21304600F0E0FB0120C007474038464E
:10162000FFF72CFD00280294019000D12EE1012843
:1016300000DAC6E10097019F0A243846214602F0ED
:1016400015FF4443391B3024214305AA51550A2F65
:1016500000D29EE10A21FEF7CFFD05A840192143E3
:101660004170642F00D298E16421384602F0FEFEFA
:101670000A21FEF7C1FD05A8401921438170039995
:101680008F4200D290E1384602F0F0FE0A21FEF7C8
:10169000B3FD05A840192143C1703846C14C21460D
:1016A00002F0E4FE2D1DA7420746C5D27DE1A878D1
:1016B000AC1C752800D1FAE0642800D042E10498FF
:1016C000011D049101680029029400D135E1C81779
:1016D000019141400D1A00240A272846394602F09C
:1016E000C5FE4743E91B3027394305AA11550A2D8A
:1016F00000D2E7E10A21FEF77FFD05A80019394372
:101700004170642D00D2DFE16421284602F0AEFE74
:101710000A21FEF771FD05A800193943817003996C
:101720008D4200D2D2E1284602F0A0FE0A21FEF747
:1017300063FD05A800193943C1702846994F394601
:1017400002F094FE241DBD420546C5D2BFE10498B7
:10175000011D049101680878002800D12CE225467B
:101760004C1CC1B2304600F037FB611C20780028C9
:101770000C46F6D1BFE60498011D04910568002DC2
:10178000029400D1D9E0012D00DA14E200240A27E6
:101790002846394602F06AFE4743E91B30273943A1
:1017A00005AA11550A2D00D2F5E00A21FEF724FD05
:1017B00005A8001939434170642D00D2EFE064217F
:1017C000284602F053FE0A21FEF716FD05A800196F
:1017D0003943817003998D4200D263E1284602F0BB
:1017E00045FE0A21FEF708FD05A800193943C1701E
:1017F0002846F54F394602F039FE241DBD42054604
:10180000C5D250E10498011D04910568002D029491
:1018100041D00F202840385C05A90870102D00D257
:101820009AE02806000F385C05A94870280A00D104
:1018300098E02805000F385C05A98870280B00D1B6
:101840003EE12804000F385C05A9C870280C00D1BF
:1018500051E12803000F385C05A90871280D00D15B
:101860005DE12802000F385C05A94871280E00D1FF
:1018700057E12801000F385C05A98871280F00D1B5
:1018800051E1385C05A9C87108244DE1302130468A
:1018900000F0A2FA95E030253046294600F09CFA87
:1018A0007821304600F098FA30462946E6E0049860
:1018B000011D04910568002D02943ED0012D00DA2F
:1018C00079E100240A272846394602F0CFFD474334
:1018D000E91B3027394305AA11550A2D00D20CE126
:1018E0000A21FEF789FC05A8001939434170642DCF
:1018F00000D204E16421284602F0B8FD0A21FEF777
:101900007BFC05A800193943817003998D4200D2F0
:10191000F7E0284602F0AAFD0A21FEF76DFC05A8B3
:1019200000193943C1702846A74F394602F09EFD81
:10193000241DBD420546C5D2E4E03021304600F00A
:101940004BFA38E12521304600F046FA6C2130464A
:1019500000F042FA2178C1E50124E5E0641C04E0CE
:10196000A41C02E00224DFE0E41C0198002803D557
:101970002D21304600F030FA641C964F05A800195E
:10198000801E0178304600F027FA641E012CF5D83D
:1019900011E16D1C09E0641C85E0AD1C05E0A41C90
:1019A00081E0C04610270000ED1C6C1C009F05A8BC
:1019B0000019801E0178304600F00EFA641E012CDA
:1019C000F5D82E21304600F007FA0198FFF7A0FB6A
:1019D0000146384603F00EFB7C4903F0B3FAFFF7EB
:1019E00073FA00252A467A4BFEF7C0FEFFF712F97C
:1019F00007460A2808DA3021304600F0EDF9002FBA
:101A00003AD0012F00DAD5E00A243846214602F008
:101A10002DFD4443391B3024214305AA51550A2F7B
:101A20002FD30A21FEF7E8FB05A840192143417096
:101A3000642F28D36421384602F018FD0A21FEF7EE
:101A4000DBFB05A840192143817003998F421CD309
:101A5000384602F00BFD0A21FEF7CEFB05A840191F
:101A60002143C1703846584C214602F0FFFC2D1D21
:101A7000A7420746C8D209E03021304600F0ACF951
:101A800098E06D1C02E0AD1C00E0ED1C6C1C05A88C
:101A90000019801E0178304600F09EF9641E012C6A
:101AA000F5D887E0E41C641C4A4F05A80019801E85
:101AB0000178304600F090F9641E012CF5D87AE0E8
:101AC000032431E0641C02E0A41C00E0E41C019843
:101AD000002803D52D21304600F07EF9641C3D4FCF
:101AE00005A80019801E0178304600F075F9641EC3
:101AF000012CF5D85FE0042416E0641C02E0A41C6D
:101B000000E0E41C641C334F05A80019801E017816
:101B1000304600F061F9641E012CF5D84BE0052435
:101B200002E0062400E007243021304600F054F99A
:101B30007821304600F050F9671E05A8C15D304697
:101B400000F04AF9102D35D3A51E05A8415D304699
:101B500000F042F9022F2DD3E71E05A8C15D3046E3
:101B600000F03AF9022D25D3251F05A8415D304626
:101B700000F032F9022F1DD3671F05A8C15D304662
:101B800000F02AF9022D15D3A51F05A8415D3046A6
:101B900000F022F9022F0DD305A82018C01F0178EC
:101BA000304600F019F9022D04D305A82018083892
:101BB000017862E7074F029C651C93E408B0F0BC13
:101BC00001BC03B00047C046102700000000C84217
:101BD0000000E03FD75E0000801E001F00BFFCD267
:101BE0007047000070B582B00B794A79002A24D082
:101BF000174A21242401202B00D070348218002B96
:101C000000D18824156C404E35402D191564556C53
:101C100035402C19546414683E4D2C4014605468AF
:101C20002C4054600024146254628F24E443156DE8
:101C300025401565556D254055656A4613718B79AC
:101C4000537109680091114600F004F802B070BDAC
:101C500038180000F0B52A4A82182A4BC3180879B0
:101C600020280DD000281DD10C68641E5460D56E4C
:101C7000254C25408835D5661646703688251DE0EA
:101C80000C68641E5460D46E1F4D2C401F4EA41966
:101C9000D466146F2C40A4191467012465071C4CEA
:101CA00016460BE00C6864085460D66E164C26404D
:101CB0000525ED017619D666164670363768274039
:101CC0002F433760D46A134D2C40D462146B2C40E0
:101CD00014630024D46414658F24E443D56F254035
:101CE000D5671D6825401D6049790143BD20084026
:101CF0001168094B0B40C018801C1060F0BDC04635
:101D0000041800008418000024F93FF001040000CA
:101D1000FFFFFFCF8888FDFF4000FFCF10B50723EE
:101D20009B04194092008018024A84589C43611811
:101D3000815010BD3018000010B5029CA40000199D
:101D400011431943014A815010BDC046501800008C
:101D500092008018014A81507047C0461018000058
:101D600010B50122120383180C789C604B788350C5
:101D70008978014A815010BD0C110000B0B51122C4
:101D8000120283580124A34383508B780C881C4390
:101D90008B882343094C1C408358094D1D402B1947
:101DA00083508B79CC791C43097A21437E231940D7
:101DB000801842689A4351184160B0BD186700000E
:101DC000E798FDFF10B50122120383180C789C6080
:101DD0004978815010BD0000074A80180268120639
:101DE00008D50268120605D50268120602D50268F7
:101DF0001206F3D481617047081100000D480021DC
:101E0000016070470B490A680B689B1A834210D225
:101E100020BF0B689B1A83420BD220BF0B689B1A12
:101E2000834206D220BF0B689B1A834201D220BF97
:101E3000EAE770479C02202081B000210091400118
:101E400080080099814219D200BF0099491C009175
:101E50000099814212D200BF0099491C009100995B
:101E600081420BD200BF0099491C00910099814228
:101E700004D200BF0099491C0091E2E701B070470D
:101E8000F0B589B0474881210160474802210160CF
:101E900001640A20FFF7B6FF68266B270124802320
:101EA000039330463946224600F04AFA6420FFF791
:101EB000A9FF00253046394622462B4600F040FA5D
:101EC0001B2118233046224600F03AFA1C213046E6
:101ED00022462B4600F034FA04AB1320029018700F
:101EE00019213046224600F02BFA05AB0420019060
:101EF00018701A213046224600F022FA3821304666
:101F000022462B4600F01CFA6A21304622462B4618
:101F100000F016FA2321304622462B4600F010FA34
:101F2000372130462246039B00F00AFA06AF3D8077
:101F30007521304622463B4600F040F801461B48DA
:101F4000FFF7BEFA3E781A483146FFF7B9FA682E15
:101F500022D1194868252946FFF7B2FA6B21284695
:101F60002246234600F0ECF96C2100232846224645
:101F700000F0E6F907AB02981870192128462246AE
:101F800000F0DEF908AB019818701A2128462246A5
:101F900000F0D6F9254602E00648FFF791FA2846F8
:101FA00009B0F0BD0880424090120A40FB5E00007C
:101FB000F05E0000165F0000045F0000F0B58BB01B
:101FC0000493029209910A90D949812008900860EF
:101FD000D84D02272F602F6401262E602F612F60BD
:101FE00005242046FFF728FF2F612046FFF724FF36
:101FF0002E610A9840000590C0B200F0B1FD2E613C
:1020000006972F60CA4CCC48206003962E60CB4CBC
:102010002068800736D50520FFF70EFF206880076F
:1020200030D50520FFF708FF206880072AD5052056
:10203000FFF702FF2068800724D50520FFF7FCFE8C
:10204000206880071ED50520FFF7F6FE2068800770
:1020500018D50520FFF7F0FE2068800712D505206F
:10206000FFF7EAFE206880070CD50520FFF7E4FEA5
:102070002068800706D50520FFF7DEFE2068800770
:1020800000D50AE101262E610898A94F3860069C08
:102090002C602C64099800F063FD2E612C60A74C25
:1020A000A54838600A962E602068800736D505203E
:1020B000FFF7C2FE2068800730D50520FFF7BCFE81
:1020C000206880072AD50520FFF7B6FE2068800724
:1020D00024D50520FFF7B0FE206880071ED5052017
:1020E000FFF7AAFE2068800718D50520FFF7A4FE99
:1020F0002068800712D50520FFF79EFE2068800724
:102100000CD50520FFF798FE2068800706D505202E
:10211000FFF792FE2068800700D5D6E00A9E2E6168
:1021200008988349086002272F602F6408602F6099
:102130002F642E602F612F6005242046FFF77CFE60
:102140002F6120467D4CFFF777FE2E6105983043C6
:10215000C0B200F005FD2E6107972F6076487449E4
:1021600008602E602068800736D50520FFF764FEE2
:102170002068800730D50520FFF75EFE20688007C5
:102180002AD50520FFF758FE2068800724D50520B2
:10219000FFF752FE206880071ED50520FFF74CFE92
:1021A0002068800718D50520FFF746FE20688007C5
:1021B00012D50520FFF740FE206880070CD50520CA
:1021C000FFF73AFE2068800706D50520FFF734FEAA
:1021D0002068800700D591E00A9E2E61089F544830
:1021E0000760079C2C602C64002102980228019152
:1021F00025D3451E0595049F4E4C079E00F046FAD8
:10220000387008984A490860266026640A98206158
:10221000266105200990FFF70FFE26610A982060CD
:102220000998FFF709FE0A98206126606D1E7F1C41
:10223000002DE3D13F4D089F079C05990A9E05910B
:1022400000F024FA0499059A8854394807602C60F4
:102250002C642E612C61274605242046FFF7ECFDF7
:102260002F602E602046FFF7E7FD2E61089E2F604D
:10227000039C019F2E490E60069E2E602E642C61E9
:102280002E612C6005242046FFF7D6FD2E602046E7
:10229000FFF7D2FD38460BB0F0BD05200A90FFF7DE
:1022A000CBFD2068089EF5480660069F2F602F64CE
:1022B000039C2C612F612C600A98FFF7BDFD2F60F5
:1022C0000A98FFF7B9FD2746D4E72646052420469D
:1022D000FFF7B2FD3068089EE8480660069F2F6051
:1022E0002F640A9828612F6128602046FFF7A4FD1B
:1022F0002F602046FFF7A0FD039CBBE72646052480
:102300002046FFF799FD3068089EDC480660079F6D
:102310002F602F640A9828612F6128602046FFF7FC
:102320008BFD2F602046FFF787FD0327039CA1E765
:102330000880424090120A408100040080130A4045
:10234000F0B587B00393049201910690CB498120A8
:1023500005900860CA4F02253D603D6401243C6041
:102360003D613D6005263046FFF766FD3D61304624
:10237000FFF762FD3C6106984006000E00F0F0FB9E
:102380003C6106953D60BF48BC4908603C60BE4E5C
:102390003068800736D50520FFF74EFD306880078E
:1023A00030D50520FFF748FD306880072AD5052085
:1023B000FFF742FD3068800724D50520FFF73CFD7C
:1023C000306880071ED50520FFF736FD306880078E
:1023D00018D50520FFF730FD3068800712D505209D
:1023E000FFF72AFD306880070CD50520FFF724FD94
:1023F0003068800706D50520FFF71EFD306880078E
:1024000000D5EFE001253D610598EF4E3060069C58
:102410003C603C64019800F0A3FB3D613C60EB48EC
:1024200030603D60EB4E3068800737D5344605207C
:10243000FFF702FD3068800730D50520FFF7FCFC70
:10244000206880072AD50520FFF7F6FC2068800762
:1024500024D50520FFF7F0FC206880071ED5052055
:10246000FFF7EAFC2068800718D50520FFF7E4FC99
:102470002068800712D50520FFF7DEFC2068800762
:102480000CD50520FFF7D8FC2068800706D505206D
:10249000FFF7D2FC2068800700D5C8E03D610598B1
:1024A000C94C20600221396039640498002800D1A9
:1024B00084E00026029506910AE0029D3D61C24C2F
:1024C0000598206039603964761C0498B04275D054
:1024D0000398805D00F044FB06993D613960DE4859
:1024E00020603D60BB4C20688007E6D50520FFF7E3
:1024F000A3FC069920688007DFD50520FFF79CFC28
:10250000069920688007D8D50520FFF795FC069925
:1025100020688007D1D50520FFF78EFC069920683A
:102520008007CAD50520FFF787FC06992068800739
:10253000C3D50520FFF780FC069920688007BCD52D
:102540000520FFF779FC069920688007B5D505209E
:10255000FFF772FC069920688007AED50520FFF7CB
:102560006BFC069920688007A7D5052004900D46CE
:10257000FFF762FC2068944C059820603D603D6444
:10258000029838613D613860049C2046FFF754FC96
:102590003D602046FFF750FC05988B4908603D6080
:1025A0003D64029838613D6138602046FFF744FC85
:1025B0003D602046FFF740FCF41C10E005982060C9
:1025C000396039643D6139613D60052420460D461E
:1025D000FFF732FC3D602046FFF72EFC0024E0B2FE
:1025E00007B0F0BD05252846FFF726FC3068764881
:1025F00005990160069E3E603E643C613E613C6020
:102600002846FFF719FC3E602846FFF715FC6E4888
:10261000059901603E603E643C613E613C60284635
:10262000FFF70AFC3E602846FFF706FCD7E7664C3A
:102630002E4605252846FFF7FFFB664800680598EB
:102640002060069C3C603C643E613C613E602846E4
:10265000FFF7F2FB3C602846FFF7EEFB5A4805996E
:1026600001603C603C643E613C613E602846FFF78F
:10267000E3FB3C602846FFF7DFFBB0E70880424001
:1026800090120A408100040080130A40F0B587B020
:102690004D48714901604E4F01263E600524204699
:1026A000FFF7CAFB3D46103D2E602046FFF7C4FBF6
:1026B0004848006806902046FFF7BEFB3E60204673
:1026C000FFF7BAFB2E602046FFF7B6FB414F386894
:1026D00005902046FFF7B0FB3D4806602046FFF717
:1026E000ABFB2E602046FFF7A7FB3868049020461E
:1026F000FFF7A2FB364806602046FFF79DFB2E60E1
:102700002046FFF799FB386803902046FFF794FBBB
:102710002F4806602046FFF78FFB2E602046FFF70C
:102720008BFB386802902046FFF786FB284806603E
:102730002046FFF781FB2E602046FFF77DFB3868BF
:1027400001902046FFF778FB214806602046FFF7FE
:1027500073FB2E602046FFF76FFB1E48076820467C
:10276000FFF76AFB1A4806602046FFF765FB2E60FC
:102770002046FFF761FB174805682046FFF75CFB22
:10278000134806600698420004210A400220059B77
:1027900003409A189200049B5B000B40D218039BE5
:1027A00003409A189200029B5B000B40D118019ADB
:1027B00002405118490007407818A907C90F0818A6
:1027C000C0B207B0F0BDC04608804240810004009E
:1027D000A0120A4080130A40B0B51C498720C86087
:1027E000012253041A48036088234B60D30303601B
:1027F00086238B625305036085238B641206026077
:10280000144B82221A65144C621C5A6581250D6096
:10281000124A0A624A620A630A641C665C665D6068
:102820001D60014640390E4B0B600360813A0D4834
:10283000016811430160032000020B490A6A024348
:102840000A620A6802430A60B0BDC04690804240F6
:10285000D0120A400480424081000400810005003B
:102860000340000090330A4028300A40B0B582B0DF
:10287000104C11492046FFF773FA10492046FFF724
:10288000E9F97D20C100002520462A46FFF760FABD
:102890000095204629462A462B46FFF74DFA20464A
:1028A00029462A46FFF73AFA05480121816001606E
:1028B00002B0B0BD00808640745E0000785E00000B
:1028C0000091864070B582B0114C12492046FFF746
:1028D00047FA11492046FFF7BDF97D20C1000125C7
:1028E00020462A46FFF734FA009500262046314656
:1028F00032463346FFF720FA204631462A46FFF794
:102900000DFA064885600221016002B070BDC04624
:1029100000400840805E0000845E000000510840D6
:10292000B0B582B0104C11492046FFF719FA104992
:102930002046FFF757F97D20C100002520462A4692
:10294000FFF706FA0095204629462A462B46FFF750
:10295000F3F9204629462A46FFF7E0F90548012108
:102960008160016002B0B0BD002086408C5E000036
:10297000905E00000031864070B582B0114C124963
:102980002046FFF7EDF911492046FFF72BF97D208E
:10299000C100022520462A46FFF7DAF900950026F5
:1029A0002046314632463346FFF7C6F920463146C7
:1029B0002A46FFF7B3F9064801218160042101602E
:1029C00002B070BD00008640985E00009C5E000072
:1029D000001186401148002101600320C1431048C6
:1029E000021F13680B401360426801218A43426052
:1029F0000A02436893434360026830239A430260AB
:102A000002680F239A430260FF200002054A136800
:102A100083438803181810607047C04608030B40B2
:102A200004010B4000E400E0084809494160FF212F
:102A30000906084A13688B43032189075918116056
:102A400000218160072101607047C04610E000E06E
:102A5000FF7C000020ED00E010B5124C124920462A
:102A6000FFF7B0F911492046FFF788F90320C103A9
:102A70000F4802688A43026001690E4A0A40D03258
:102A80000261416915220A432A218A434261416851
:102A90000122114043689343591841600168114372
:102AA000016010BD00801040A45E0000A65E000022
:102AB000009110400000FFFF80B500F021F8FFF703
:102AC0008BFEFFF787FFFFF72BFFFFF755FFFFF7A1
:102AD000CDFEFFF7F7FEFFF7BFFFFFF7A5FFB8201A
:102AE000044900220A5404490A54742003490A5430
:102AF00080BDC046E001202024012020AC00202021
:102B0000F0B581B00D480E4941600E4A51600E4B40
:102B100059600E4C61600E4D69600E4E71600E4F33
:102B200079600E490160116019602160296031608F
:102B300039601020FFF750F801B0F0BD00080A40DE
:102B4000030000B100280A400028864000088640A3
:102B50000088864000480840008810400100002698
:102B6000F0B581B04D4A812111604D4F02253D6085
:102B70003D6401243C61009040B2002801D43D61D5
:102B800000E03D602046FFF757F93C6005263046DF
:102B9000FFF752F93C613046FFF74EF900984006C6
:102BA00001D43D6100E03D602046FFF745F93C60FF
:102BB00005263046FFF740F93C613046FFF73CF907
:102BC0000098800601D43D6100E03D602046FFF79B
:102BD00033F93C6005263046FFF72EF93C6130465C
:102BE000FFF72AF90098C00601D43D6100E03D607E
:102BF0002046FFF721F93C6005263046FFF71CF917
:102C00003C613046FFF718F90098000701D43D6198
:102C100000E03D602046FFF70FF93C600526304696
:102C2000FFF70AF93C613046FFF706F900984007C4
:102C300001D43D6100E03D602046FFF7FDF83C60B7
:102C400005263046FFF7F8F83C613046FFF7F4F808
:102C50000098800701D43D6100E03D602046FFF709
:102C6000EBF83C6005263046FFF7E6F83C6130465D
:102C7000FFF7E2F80098C00701D13D6100E03D6038
:102C80002046FFF7D9F83C6005252846FFF7D4F821
:102C90003C612846FFF7D0F801B0F0BD0880424003
:102CA00090120A4002480168491C01607047C04602
:102CB0009C022020F0B58DB0044607AF0920F870C3
:102CC000E320B870CA207870022002903870682023
:102CD00004213A4601F098FBA32179723972F97107
:102CE000402323405C20C043002B024601D03D22FC
:102CF000D243FA70002B024601D03722D243BA7079
:102D00003F250593002B024600D0EA4301957A70D7
:102D10003970012635022A4680322240014601D010
:102D20003921C943B971002A014601D03321C94371
:102D300079710692002A01D03B20C0433871744853
:102D40000F300A213A4601F05FFB03202721204083
:102D50000490039101D0202000E0C84338706C48F3
:102D60001E3031463A4601F04FFB9720C000A106C5
:102D700005D4C7210C9169490B91694904E05D2193
:102D80000C9164490B9164490A9109210AAA01F046
:102D90003BFB0698002821D0254001D0642000E0AC
:102DA0006F20C04307AAD070002D01D0492000E059
:102DB0004B20C0439070002D01D0742000E07F2094
:102DC000C0435070002D01D04D2000E04F20C04383
:102DD00010704F480A30042101F016FB8B200001CF
:102DE000E10704D107AAD8211170012149E007AAFF
:102DF000F82111700126314601F006FB0720FA2167
:102E000000F026FA0AAA019810702920C700384657
:102E1000314601F0F9FA0AAA00251570F81D31466D
:102E200001F0F2FA0AAA1420507015703846963054
:102E3000029E314601F0E8FA0AAA6420507015702B
:102E400038469230314601F0DFFA0AAA9020D0705D
:102E5000F92090708E20507015703846143004217F
:102E600001F0D2FA0AAA08205070157038461230C4
:102E7000314601F0C9FA0AAA567015701037384663
:102E8000314601F0C1FA059D0399A00702D526201D
:102E9000C04300E0C84307AA10702248012101F096
:102EA000B3FA600701D4214800E01F480A900421CA
:102EB0000AAA174801F0A8FA00F0CEFFE00601D4F4
:102EC0001C4800E01A480A901148801D04210AAAF3
:102ED00001F09AFA00F0C0FF069A082020438649C4
:102EE0000880002D00D00625002A00D0AD1D14203A
:102EF000044201D0102005430498002800D02D1D65
:102F000000F0AAFF7B48057000200DB0F0BDC04660
:102F1000980A0000B4980D35B8AAB38DB088C3C51F
:102F2000B8AAAAAA3D070000C0C2C4C68B8B8B8B6F
:102F300020283038A3A3A3A380B501208202034830
:102F40000349C82300F0A2FD80BDC046F60B000077
:102F50007E520000F0B58DB0039315460C460490E8
:102F6000129F00263E806348007805A9139A00F05E
:102F700021FFF143002800D0B8E002975E480388A3
:102F800014200342049F4ED000910193059800063F
:102F900005AA517809040F18D07893781B021818E5
:102FA000C01928600698000653791B041B18D079B5
:102FB000967936023018C018686007980006567A6D
:102FC00036043618D07A917A090208188019A86058
:102FD00008980006517B09040818D17B927B1202E5
:102FE00051180918E960191449433A145243511809
:102FF0003214524389180014404308183F494018BE
:103000003F49884206D800F027FF00200299088037
:1030100000996BE001200002029A1188014311809F
:103020001026019B049F580602D43146029C20E0E2
:103030000120304305A9085C8A5D12021018208027
:1030400003203043085C022232438A5C12021018CB
:10305000608005203043085C04223243895C090209
:103060000818A080029C20880821014321800621A5
:1030700031430120000280300342039E17D005A88F
:1030800042181D465378405C0002C0183880D07842
:1030900093781B0218182B46788050791279120207
:1030A0001018B8802088702202432280891D98075A
:1030B00018D005A84518EC786878C1070AD01149DE
:1030C0000A68002A06D007202040411CA006400FB5
:1030D00090476878000705D50B480168002901D0A2
:1030E000A0098847304600F0E1F9002108460DB0FC
:1030F000F0BDC046AA002020A4002020FFFFFFEE64
:10310000FEFFFFFD980020209C002020F0B585B038
:103110000446134804901348039013480290002774
:10312000FD43C82C18D86E463770E1B2C82001F0B4
:103130009DF9401E70700D480221324601F064F97D
:10314000002809D10A480C2102AA01F05DF90028E3
:1031500002D1084804803D46284605B0F0BDC0466F
:10316000BBAFDFDFAAF1DFDFFEF2ABC41602000067
:10317000C10A0000A8002020F0B583B00446032156
:1031800008402D4B1D5C02AA15702C4D285C01AE29
:1031900030702006800F1F5C9770E706BF0FDB5D65
:1031A0005370285CB070E85D7070254E304601F0B9
:1031B0002BF90027FD43002829D1301D032101AA46
:1031C00001F022F9002822D11E4801901E480290E9
:1031D00060071FD4A00625D4E00505D501A8672106
:1031E000817002A87721817030461A30032102AA2B
:1031F00001F00AF900280AD10B36032101AA304652
:1032000001F002F9002802D1104804803D4628460A
:1032100003B0F0BD01A82721017002A83721017079
:10322000A006D9D501A84721417002A857214170B5
:10323000E005D3D4D8E7C0467B52000078520000A6
:10324000260400002646660036567600A0002020A0
:10325000F0B585B00E4605460021CC43192080010B
:10326000864200D988E00720284000D184E00191FF
:1032700003AF384600F024FB3046FDF751FF4049CC
:10328000FDF74CFE39788A1E0121CA41072A73D8FE
:103290008D21CE053B49C0467A44127952009744AD
:1032A0000E036B076B6B6B0B23214E06384906E050
:1032B0008B21CE05354902E045210E0632490294A4
:1032C000074601F03FFEFDF7D9FE044631462E4683
:1032D00004ADE870384601F035FEFDF7CFFE6870AA
:1032E000210AA970000A2870AF1CF00706D1B007A8
:1032F00011D47007029C24D4019C3DE03C46492037
:1033000087003846B030022104AA01F07DF8002879
:103310000DD0029C30E0492084002046B4300221C8
:1033200004AA01F071F800281ED0029C24E00221BA
:1033300038462746224601F067F80028D7D0029C7D
:103340001AE0492085002846B830022104AA01F07D
:103350005BF8002810D10835022128463A4601F0D2
:1033600053F8002808D1C7E7201D02213A4601F092
:103370004BF80028BDD0029C204605B0F0BDC046E9
:1033800000004843000040460000C04400004045A3
:103390000000C04510B500228156002913460CDDFF
:1033A00003214456002C114617DD06240457002C37
:1033B0001BDD19431143084610BD00291FD401230A
:1033C000C1560029ECDC00292DD40223C156002966
:1033D000E6DC002935D00623E2E7002C11D40421D5
:1033E000415600290FDD0821DFE701221202002CDF
:1033F000DFD407240457002C0DDD4022D9E7042335
:10340000CEE72021D1E700290FD40521415600291C
:103410000FDD1021C9E7002C09D40824005700282B
:103420000BDD8022C5E70523BAE72821BDE740323E
:10343000BFE7002907D03021B7E7002805D080205A
:1034400004E00723ACE73821AFE7C0201218B0E74B
:10345000FFF732FBFEF7D2FCFEF712FD08A0FEF7E5
:103460002FF87D20C000FEF7CDFC00F021F80BA462
:103470000D4D2046FEF724F82846FEF7C3FCF8E77A
:10348000536D617274204361722053797374656D5A
:10349000205374617274696E670D0A004949435F75
:1034A00053746172740D0A00B80B0000704700007D
:1034B00084B000200390029001901C48FEF700F8B1
:1034C00000F094F900280AD019A42046FDF7F8FF6F
:1034D000C820FEF797FC00F089F90028F5D117A065
:1034E000FDF7EEFF1DA421A524A602E01420FEF79F
:1034F00089FC03A802A901AA00F094F80028F5D1DC
:103500000398FDF7BBFD01462046FDF7D9FF029861
:10351000FDF7B4FD01462846FDF7D2FF0198FDF7FF
:10352000ADFD01463046FDF7CBFFDFE7E85E00006A
:10353000646D70206572726F720D0A00496E697455
:1035400069616C697A6174696F6E2044617461208D
:1035500053756363656564200D0A00000D0A706988
:10356000746368203D25640D0A0000000D0A726F27
:103570006C6C203D25640D0A000000000D0A796185
:1035800077203D25640D0A00F0B585B0054624205E
:10359000D54E305C002803D00024204605B0F0BD95
:1035A000B07A0024E74300281BD0FE210D402840BC
:1035B000317C3074A84200D0E443002D13D1307D1B
:1035C000002810D104AB0020187005CEC17B107804
:1035D0000122083EFEF7B4FE0028DED10498707484
:1035E000DBE73C46D9E7707C002810D103AB012211
:1035F0001A70306802917168C07B01900878019957
:10360000FEF79EFE0299002801D103987074002DE8
:10361000C3D00D4600F020FC0028BED035743C46D7
:10362000BBE7C046F0B597B014460E46054610A855
:10363000019011A8009014A812A90CAA16ABFFF7CC
:1036400089FC002802D0012017B0F0BD11A8008825
:10365000C00502D4022017B0F0BD0C98FDF758FD4C
:1036600061210894CC05214601F06CFC0A900D986C
:10367000FDF74EFD214601F065FC074609900E98C6
:10368000FDF746FD214601F05DFC03900F98FDF724
:103690003FFD214601F056FC04460B9003208107B4
:1036A000384601F04FFC0595054606900A980146FC
:1036B00001F0D8FB0490039F394601F043FC0796C4
:1036C00006462846214601F03DFC314601F0CAFB82
:1036D000FDF7FAFB01F05AF8424A434BFDF7D0FAE6
:1036E000FCF78AFE05990860384639463D4601F0E8
:1036F000B9FB06460498099C214601F023FC0746C5
:1037000030460B9901F01EFC394601F0ABFBFDF78A
:10371000DBFB05900F462846314601F013FC0646B8
:103720000698214601F00EFC314601F063FC7F2132
:10373000C90501F097FBFDF7C7FB02460B4605984C
:10374000394601F06BFA274A274BFDF799FAFCF747
:1037500053FE079908600A9F38460B9901F0F2FB67
:103760000446099E3046294601F0ECFB214601F053
:1037700079FB014601F076FBFDF7A6FB04460791B5
:103780003046314601F0DEFB06463846394601F048
:10379000D9FB314601F066FB06462846294601F072
:1037A000D1FB0146304601F025FC06460B98014648
:1037B00001F0C8FB0146304601F01CFCFDF784FB1C
:1037C00002460B462046079901F028FA054A064BA7
:1037D000FDF756FAFCF710FE08990860002017B0B4
:1037E000F0BDC0466666666666A64C40F0B583B01E
:1037F00000F080F8000601D000245BE07825284620
:1038000000F092FD000601D0012453E02420E84E90
:10381000305C002806D0642000F014FD000622D0A1
:10382000032447E0B77A0224002F43D02F40357C91
:103830003774707C002810D102AB01221A703068F6
:1038400029467568C07B019028780D460199FEF7DE
:1038500077FD002801D10298707400F0FDFA00286D
:1038600010D0357426E0FFF767FB000601D0042472
:1038700020E01248FFF78EFDFFF77EFC000604D023
:10388000052417E0782F15D1C5E7FF207430FFF726
:1038900011FA000601D006240CE06420FFF736FC84
:1038A000000601D0072405E0012000F029FC0006F5
:1038B000A2D00924204603B0F0BDC046000020205D
:1038C00010B501460020BA4B5A7A032A0AD8D20012
:1038D000064CD4400C70DB7C002B02D0044BD34050
:1038E0000B7010BDC04310BD0C0020200204081056
:1038F00004081020F0B585B002AB802018704E4F40
:1039000005CF817C10780122083FFEF719FD0026C3
:10391000F443002818D16420FEF774FA02AB1E703D
:1039200005CF817C107801252A46083FFEF708FD67
:10393000002809D105CF817D1078062202AB083F0F
:10394000FEF73CFB002802D0204605B0F0BD02A8DF
:10395000417829404279D207520FC078C007800FC2
:103960008018411847D001292A4602D002295AD18D
:103970003246FF20B87438744348F881FA743D73B6
:10398000BC6028047E61BE61FE6138623846083042
:10399000067746778677C67704AB1820187005CF70
:1039A000817910782A46083FFEF7CAFC0028CBD15F
:1039B00004A80078C0083872022000F0F3FA00284A
:1039C000C2D12A2000F002FC0028BDD1322000F034
:1039D00039FC0028B8D10020FFF7D6FD0028B3D16C
:1039E0000025284600F01CFB0028ADD1284600F039
:1039F0009BFC2C46A8E705CFC1781078012202ABCA
:103A00000192083FFEF7DAFA00289DD102A801785A
:103A10000F20084004280AD000283246A9D11948AE
:103A2000FDF74EFD90E705A0FDF74AFD8CE70DA0E0
:103A3000FDF746FD019A9CE70C002020556E73753A
:103A400070706F7274656420736F667477617265ED
:103A50002070726F64756374207265762025642E01
:103A60000A00000048616C662073656E73697469B2
:103A700076697479207061727420666F756E642E39
:103A80000A000000295F0000FFFF0000F0B58FB0C2
:103A900006460027F8430891002977D02524ED49F0
:103AA000095D002972D10292009401930390002EC7
:103AB0005CD00496BDB2731B102BE64A00DB1023CA
:103AC000907A002864D00EA847703E0A0670F8B2BB
:103AD00099B207910C18506841898C4258D80078E7
:103AE0001168097E022209930EABFEF729FC099B9F
:103AF000D84900284CD12A4635460898861805C969
:103B0000417D1078DAB2069205963346FEF718FC2E
:103B100000283DD1CF4A907A002839D0E8B20EA9CA
:103B20004F700870506841898C4231D80078116814
:103B3000097E02220EABFEF703FCC649002827D1FE
:103B400005C9417D10780AAB069AFEF737FA0028BE
:103B50001ED10AA90598079AFCF720FB002822D15C
:103B600009983F18B8B2049EB042A3D30EAB029896
:103B70005870000A1870B74C05CC817E107802226C
:103B8000083CFEF7DDFB0028039804D00FB0F0BD21
:103B900003980FB0F0BD0120009960540198E084B3
:103BA00000200FB0F0BD0398401E0FB0F0BDC0461E
:103BB0000C002020F0B589B00025EF43282800D95B
:103BC000F5E0064600280BD001972324F44A105D47
:103BD00001283BD0907C1346002818D0322117E0F2
:103BE0002324EF4D285D002800D1D1E0A87C411EA0
:103BF00002468A41510003AA11702221695C002902
:103C000000D1B9E0002800D1B2E07D20B1E0302140
:103C1000009504AA117022211D46595C002907D085
:103C2000002801D04D2000E04F20C04304A90870B7
:103C300005CD017D1078012704AB3A46083DFEF71B
:103C40007FFB2A460028009D00D1175502A820219D
:103C50000170012E1CD102A800214170907A002829
:103C600013D005A806210170D07A06280DD010685F
:103C70001446526881781078012205ABFEF760FB8C
:103C80002246002801D10598D0720720019F59E0F3
:103C9000052E1CD802A801214170907A002813D06B
:103CA00006A806210170D07A06280DD010681446A7
:103CB000526881781078012206ABFEF741FB22465C
:103CC000002801D10698D0724720019F3AE0142EB7
:103CD0001CD802A802214170907A0028019F13D0BD
:103CE00007A805210170D07A05280DD01068144668
:103CF000526881781078012207ABFEF721FB22463B
:103D0000002801D10798D07287201BE002A8032168
:103D10004170907A0028019F13D008A804210170F7
:103D2000D07A04280DD01068144652688178107833
:103D3000012208ABFEF704FB2246002801D10898B7
:103D4000D072C72002AB5870106814465268817C4C
:103D500010780222FEF7F4FA002828D101202075FD
:103D600025730820A0722846FFF70EFC2F461EE0A0
:103D70007F20C04303A9087005CD017D1078012282
:103D800003AB083DFEF7DCFA002801D100202855DE
:103D90000720000202AB188005CD817C107802223A
:103DA000083DFEF7CDFA002801D100272F753846CF
:103DB00009B0F0BDF0B585B006462420CF4F385C81
:103DC0000024E543002842D0B87A00283FD0029171
:103DD000039205CF817A1078022204AB083FFEF7E8
:103DE000EDF8002833D104A8417800780002421889
:103DF000B24203D200200399087028E07868418815
:103E000049088A4201920DD900783968497C01221B
:103E100004ABFEF7D3F8002819D104A80078C00637
:103E200012D4786800783968C97AF2B2029BFEF73A
:103E3000C5F800280BD10198314600F017FB401E51
:103E400003990870254602E000F006F86D1E28462A
:103E500005B0F0BD0C00202070B582B00026F44300
:103E6000F74DA87A00281ED001AB1E7005CDC17B8E
:103E700010780122083DFEF763FA002813D105CD22
:103E800041791078012201AB083DFEF759FA00286C
:103E900009D105CD01791078012201AB083DFEF76B
:103EA0004FFA002802D0204602B070BD2420285CC2
:103EB000002813D001AB0C20187005CD01791078C3
:103EC0000122083DFEF73CFA0028ECD13220FDF734
:103ED00099FFA87AC0073AD01F2039E001AB04202F
:103EE000187005CD017910780122083DFEF728FAF7
:103EF0000028D8D1A97A4020C907014600D0602106
:103F0000AA7C002A00D0014601AB197005CD0179C9
:103F100010780122083DFEF713FA0028C3D13220A1
:103F2000FDF770FF687C411E884101AB187005CD1C
:103F3000C17B10780122083DFEF702FA0028B2D1B9
:103F400005CD41791078083501222B4621E03F202C
:103F5000C04301AB187005CD017910780122083DEE
:103F6000FEF7EEF900289ED1687C411E8841400092
:103F700001AB187005CDC17B10780122083DFEF71A
:103F8000DFF900288FD101AB1E7005CD4179107883
:103F90000122FEF7D5F9002885D1344683E7C046D3
:103FA0000C00202070B582B00025EC43DD4EB17AC4
:103FB000002932D0811E0120C14107292DD8C046D9
:103FC0007944097949008F440307280B28282810D1
:103FD00001A9002008700CE001A908220A7008E07D
:103FE00001A810210170022003E001A8182101702E
:103FF0000320717A814201D12C460EE005CEC179B1
:104000001078012201AB083EFEF79AF9002804D18E
:1040100001A80078C00870722C46204602B070BD1E
:10402000F0B581B00446F74EB07CA04201D1002526
:1040300061E005CE0179107801226B46083EFDF75C
:10404000BDFF0027FD43002C1AD0002853D16B463A
:104050001878DF210140197005CE0179107801220E
:10406000083EFEF76DF9002845D10320FDF7CAFE92
:1040700031460831887E002827D07D20C04325E0C6
:10408000002838D16B461878DF210140B07AC0078C
:10409000800E0818187005CE017910780122083EAC
:1040A000FEF74EF9002826D10320FDF7ABFE31467E
:1040B0000831887E421E03469341DA016B461A702E
:1040C000002805D07F20C04302E002206A4610701D
:1040D000C97E002903D0302108436946087005CE07
:1040E000017D107801226B46083EFEF729F9002871
:1040F00001D1B4743D46284601B0F0BD0C0020202B
:10410000F0B585B02427D84EF15D0024814259D006
:10411000002835D02520305C0025002851D000290A
:1041200002D1B07A00280CD002AB1D7005CEC17B45
:1041300010780122083EFEF703F9002801D1029809
:1041400070742846FFF76CFFF08C00F07BF801AB31
:104150001D7070680078232101252A46FEF7F0F8CB
:10416000F55503AB0220187005CEC17B10782A46A6
:10417000083EFEF7E5F8002820D1039870741DE092
:10418000002902D1B07A00280DD004AB00201870AD
:1041900005CEC17B10780122083EFEF7D1F8002839
:1041A00001D104987074307C01AB1870706800788D
:1041B00023210122FEF7C4F80020F055FFF74CFE42
:1041C00000E0EC43204605B0F0BDC04670B582B0BB
:1041D0000025EC43A44EB17A00292DD0BC2802D38F
:1041E00001A9012015E0622802D301A9022010E0F4
:1041F0002A2802D301A903200BE0142802D301A925
:10420000042006E00A2802D301A9052001E001A943
:1042100006200870F17A814201D12C460CE005CECF
:1042200081781078012201AB083EFEF789F800285A
:1042300002D10198F0722C46204602B070BDC046F3
:104240000C002020F0B583B0054687490026F443D2
:10425000887A002862D02420085C00285ED1087D7E
:1042600000280BD0681E80B2272804D8E8B2FFF7D8
:10427000A1FC344652E00020FFF79CFC00967D2014
:10428000C600B54200D33546042D00D8042530467B
:10429000294600F0EBF8401E01AB1870724D05CDB9
:1042A0004178107801273A46083DFEF749F8002882
:1042B00034D101A80478611C304600F0D7F8E881B9
:1042C000A87A002829D0012C01D802A815E0042CD6
:1042D00002D802A8022710E00A2C02D802A803275D
:1042E0000BE0182C02D802A8042706E0312C02D8D3
:1042F00002A8052701E002A806270770E87AB8425D
:104300000BD005CD81781078012202AB083DFEF775
:1043100017F8002801D10298E872009C204603B0EB
:10432000F0BDC0460C00202070B582B004464006A7
:10433000400F02D06846012105E06846002C01D0FC
:10434000002100E040210170474E05CE817C1078AD
:1043500001256B462A46083EFDF7F2FF002803D0F0
:104360000020B072C5434AE0200904218143A2061F
:1043700000D4891C284040186840210700D43830F8
:104380006B4619781870BF200840307305CEC17C89
:1043900010782A46083EFDF7D3FF002803D00020FE
:1043A000B072C5432BE0F720044222D02325705D74
:1043B00000281ED0B07C411E02468A41510001AA4D
:1043C00011702221715C002907D0002801D07D20C6
:1043D00000E07F20C04301A9087005CE017D107860
:1043E000012201AB083EFDF7ABFF002801D1002000
:1043F000705500253575B4723220FDF703FD28464F
:1044000002B070BD0C002020F0B581B00027FC4345
:10441000002A25D00E46144B997A002920D0154643
:1044200069464870020A0A70C0B281195868428908
:10443000914215D800781968097E02226B46FDF773
:104440007FFF00280CD1084905C9417D1078F2B2E0
:104450002B46FDF775FF002801D1044600E0FC4320
:10446000204601B0F0BDC0460C00202043088B421E
:104470001AD3002203098B4279D3030A8B425ED3FD
:10448000030B8B4242D3030C8B4227D30902FF223A
:1044900012BA030C8B4202D31212090203D0030B8F
:1044A0008B4233D31AE0D3E0411A8041401C70475D
:1044B00003460B4371D443088B42F5D30022030912
:1044C0008B4254D3030A8B4239D3030B8B421DD347
:1044D000030C8B4202D394466EE0090AC30B8B4255
:1044E00001D3CB03C01A5241830B8B4201D38B0300
:1044F000C01A5241430B8B4201D34B03C01A5241A5
:10450000030B8B4201D30B03C01A5241C30A8B42E7
:1045100001D3CB02C01A5241830A8B4201D38B02D2
:10452000C01A5241430A8B4201D34B02C01A524176
:10453000030A8B4201D30B02C01A5241CDD2C309E8
:104540008B4201D3CB01C01A524183098B4201D364
:104550008B01C01A524143098B4201D34B01C01A4F
:10456000524103098B4201D30B01C01A5241C308C7
:104570008B4201D3CB00C01A524183088B4201D336
:104580008B00C01A524143088B4201D34B00C01A22
:104590005241411A524110007047CA0F00D049429F
:1045A000031000D34042534000229C4603098B4233
:1045B0002DD3030A8B4212D38901FC2212BA030ABB
:1045C0008B420CD3890192118B4208D3890192113D
:1045D0008B4204D3890137D0921100E08909C309C5
:1045E0008B4201D3CB01C01A524183098B4201D3C4
:1045F0008B01C01A524143098B4201D34B01C01AAF
:10460000524103098B4201D30B01C01A5241C30826
:104610008B4201D3CB00C01A524183088B4201D395
:104620008B00C01A5241D9D243088B4201D34B00B0
:10463000C01A5241411A00D2014652411046634607
:104640005B1000D34042704763465B1000D340428A
:1046500001B50021004201D0C9430846C046C0460A
:1046600002BD00004900CA020243100000D004202D
:104670004A0D01D001221043044A490D914201D153
:1046800002210843012800D105207047FF070000E0
:10469000F8B504464F1EC8000838211815461E46B6
:1046A000086849683A4606239A4310D02A4633469A
:1046B000FCF7E6FA3A46D200083AA3181A687F1EB9
:1046C0005B68FCF753F806223B469343EED1022F7A
:1046D00023D0042F11D0062F2FD12A463346FCF7C2
:1046E000CFFAE36AA26AFCF741F82A463346FCF7A0
:1046F000C7FA636A226AFCF739F82A463346FCF7A0
:10470000BFFAE369A269FCF731F82A463346FCF7A1
:10471000B7FA63692269FCF729F82A463346FCF7A1
:10472000AFFAE368A268FCF721F82A463346FCF7A3
:10473000A7FA63682268FCF719F8F8BD10B50122E2
:10474000FCF7FCFC10BD10B5FCF710F810BD002202
:1047500010B5134610461146FCF738F810BD00009E
:10476000034A10B500201107FCF7E8FC10BD00005B
:1047700001FDFFFF10B500F0BBFBEFF300808000F0
:1047800001D5012010BD002010BD0000F0B5044689
:104790004F008E488FB07F080D460D91874228DB71
:1047A0004042381820430CD08948874203DC8742B6
:1047B00018D1002C16D020462946FFF7BFFF0FB0B6
:1047C000F0BD844A844B20462946FCF759FA074637
:1047D0000E46824A824B20462946FCF751FA3A4659
:1047E000334649E00120FCF7A3FCFFF7B0FF0FB010
:1047F000F0BD7C48874243DAF920800587420BDA16
:1048000020462946FFF72EFF042801D1FFF7A8FF15
:10481000204629460FB0F0BD22462B4610462946B9
:10482000FCF72EFA064602466F480F460B46062155
:104830007844FFF72DFF32463B46FCF721FA0690FD
:104840006A48079132463B4604217844FFF720FF2F
:1048500032463B46FCF714FA00225C4BFBF786FF1E
:1048600002460B4607990698FBF7B0FF22462B46F7
:10487000FCF706FA22462B46FBF778FF0FB0F0BD97
:104880002046524C6900490800222346FBF786FF68
:104890000022D243FCF752FC0546024654480E461D
:1048A0000B4606217844FFF7F3FE2A463346FCF711
:1048B000E7F906904F4807912A4633460421784489
:1048C000FFF7E6FE2A463346FCF7DAF900222346D4
:1048D000FBF74CFF059104902846314600F06CFA36
:1048E000089045480C46874219DB059B049A0799B6
:1048F0000698FBF76BFF02460B4621460898FCF72B
:10490000BFF92346089AFBF731FF0122FCF716FC9A
:10491000304A314BFBF737FF304A314B4AE0002732
:104920003A460B460898FBF721FF3A4623460A9180
:104930000E9010461946FCF7A3F92A463346FBF7BA
:104940002DFF0A9B0E9AFBF741FF05460E46059B7D
:10495000049A07990698FBF739FF00910490012209
:1049600028463146FCF7EAFB1A4A1B4BFBF716FFB9
:104970000E460546012221460898FCF7DFFB009B06
:10498000049AFCF77DF92A463346FBF7FCFE054600
:104990000E46012238462146FCF7D0FB0F4C174F3C
:1049A00022463B46FBF7FAFE2A463346FBF7F6FE65
:1049B00022463B46FBF7F2FE0D9A002A00DD5DE73A
:1049C0000122D20751400FB0F0BD00000000F03FBF
:1049D0000000F07F075C143326A6913C182D445448
:1049E000FB21F93F0000E03F540900006A09000084
:1049F000E0080000F60800003333EF3FFB21E93FF9
:104A0000F0B589B004460D46480006917249400849
:104A1000884215DB7149884203DC884207D1002CAB
:104A200005D020462946FFF789FE09B0F0BD6C4845
:104A3000002D02DD6B4909B0F0BD6B4909B0F0BD36
:104A40006A49884211DA6A4988420BDA20462946C7
:104A5000FFF708FE042801D1FFF782FE2046294611
:104A600009B0F0BD0026F6435DE06D0061496D08B8
:104A7000884232DA6049884219DA00260123324638
:104A80009B0720462946FBF771FE0746019101224C
:104A900020462946FCF752FB0022584BFBF773FED9
:104AA0003A46019BFBF792FE04460D463BE0012689
:104AB0000022524B20462946FBF758FE074600913C
:104AC00000224E4B20462946FBF75DFE3A46009BEE
:104AD000FBF77CFE04460D4625E04949884219DA79
:104AE00002260022474B20462946FCF7C9F800223F
:104AF000424BFBF73BFE074602910022414B20460A
:104B00002946FBF740FE3A46029BFBF75FFE044650
:104B10000D4608E0032622462B4600203A49FBF7C3
:104B200055FE04460D4622462B4610461946FCF714
:104B3000A7F807460B4602460191FCF7A1F802468A
:104B4000029032480B46039106217844FFF7A0FDFE
:104B50003A46019BFCF794F800902D4801910521FD
:104B60007844039B029AFFF793FD039B029AFCF79C
:104B700087F802460B4601990098002E0BDAFBF7E6
:104B8000F5FD22462B46FCF77BF822462B46FBF729
:104B900005FE09B0F0BDFBF7E9FD22462B46FCF708
:104BA0006FF81C4AF6007A4493191A685B68FBF7A1
:104BB000EAFD22462B46FBF7E6FD174A7A44931995
:104BC0001A685B68FBF7EAFD069A002AE1DA01221F
:104BD000D207514009B0F0BD000010440000F07F42
:104BE000182D4454FB21F93FFB21F9BF0000DC3FA5
:104BF0000000203E0000F33F0000E63F0000F03FD1
:104C0000008003400000F83F0000F0BFF206000003
:104C1000B40600004E06000018060000F0B51FB4F0
:104C2000039A029D53006E422E439446F40F5B0894
:104C30004A00574E52081C438E46B44205D847429C
:104C40000743FC0F1443B44205D92A466346FFF7D5
:104C50007AFD05B0F0BD4F4E66442E430AD0CC0F0E
:104C60006646B61702273E40264304464A4F144381
:104C700004D00BE0FFF7C4FE05B0F0BD002EFBD062
:104C8000012EF9D0022E32D0032E34D01C462C43F4
:104C90000BD03F4CA34216D1A2420AD10121890771
:104CA0008B438A43114603930DE0704600280FDBC7
:104CB00025E03A4D7D44002E0ED0012E10D0022E5C
:104CC00015D0032E17D0A2421DD17046002816DA47
:104CD0003148334905B0F0BD6968286805B0F0BDBA
:104CE00001226968D2072868514005B0F0BD3846F6
:104CF0002C4905B0F0BD38462B4905B0F0BD26481B
:104D00002A4905B0F0BDD21A12153C2A02DD224D07
:104D1000264C12E06346002B05DA3C23DA4202DA25
:104D200000252C4609E0039B029AFBF74FFD490042
:104D30004908FFF765FE05460C46002E12D0012EED
:104D40000DD01B4A1B4B022E2846214618D0FBF7DC
:104D50001AFD3A46134BFBF716FD05B0F0BD0120D6
:104D6000C0074440002213462846214600F048F878
:104D700002D10220FCF7DCF92846214605B0F0BD3F
:104D8000FBF701FD3A46074BFBF708FD05B0F0BD08
:104D90000000F07F000010C0182D4454B80500003A
:104DA000FB21F9BFFB210940FB2109C0FB21F93F91
:104DB000075C143326A6A13CF8B506460C46FCF762
:104DC00041FA051E0F4600D00120014349000B485F
:104DD0004908411AC90F0DD0002E01D0012100E071
:104DE00000210C4361004908401AC00F02D1012084
:104DF000FCF79EF928463946F8BD00000000F07F18
:104E000070B501252D050C001C4310D4EC4206D4CE
:104E1000AC420AD4994200D070BD904270BDE942C4
:104E200017D4EB4215D4994270BD894270BDEC4253
:104E300006D5AC42F9D58B4200D070BD824270BD20
:104E40006D004C00EC4204D25C00EC4201D28B427B
:104E500070BD034C30B4FCF7A5F930BC70BD00BF89
:104E60001900120470B50125ED0704004C4020D450
:104E7000441A01D2001B0919C60D4B00F2B2FF2AD9
:104E800029D01B0E2CD000020C0228432C43D31A2D
:104E9000DC40051910D2280A02D3401C6D0611D03F
:104EA000761EF6058019FF2A00DA70BDC00DC00518
:104EB00070BD694000F0A4F801200543C541521CB3
:104EC000761CE8E764089C40C90161408900E7D18D
:104ED0000124A043E4E71B0E440200D0034870BD48
:104EE000002AFCD1C00FC00770BD00BF0000C07F0A
:104EF0000123DB0502000A430DD4DA4203D49A42AF
:104F000007D488427047D84214D4D94212D4884278
:104F1000704780427047DA4203D59A42F9D5814200
:104F200070475B004200DA4204D24A00DA4201D202
:104F30008142704710B5024AFCF704FA10BD00BF69
:104F40000900130470B5420064414B005C41120E2D
:104F500039D01B0E38D0FF2A3CD0FF2B3AD0D218C4
:104F60007F3A40024902400A490A4518ED0106000D
:104F70004E43000A090A48430104731A4019190CE8
:104F80004318990F04D05B08012149075B1A521C92
:104F9000D80904D3401CF50301D19D0607D0FF2A90
:104FA00008D2D50506D0E4072043401970BD01257D
:104FB000A843F4E7002A01DCE00770BD2402FF20CB
:104FC0002043C00570BD1B0EFF2A03D0FF2B01D06C
:104FD000E00770BDFF2636064500B54206D84D00F5
:104FE000B54203D8D218FF2A00D0E7E7004870BDC9
:104FF0000000C07F70B50125ED0704004C4022D4AD
:10500000441A02D26C40001B0919C60D4B00F2B2C3
:10501000FF2A4BD01B0E50D000020C02A8432C4399
:10502000D31ADC40051B05D5AD0019D36D08761EDB
:10503000521E37D0F605280A01D2801970BD704182
:105040006D0603D070BD6940FFF712FF9C40090256
:105050006140490001D0401E70BD0124A04370BDD5
:105060006D081DD001202B0C01D12D0410302B0E0A
:1050700001D12D0208302B0F01D12D01001DAB0FE6
:1050800001D1AD00801CEB0F01D16D00401C361A20
:10509000121A6D00680AF5054019012A02DB70BD7D
:1050A000002070BDC036300AC00770BD1B0E440220
:1050B00001D1FF2B00D1024870BD002AF0D070BD95
:1050C0000000C07F80807F7E7D7C7B7A79787776D8
:1050D00076757473727171706F6E6E6D6C6C6B6AD5
:1050E0006A69686867666665646463636261616073
:1050F000605F5F5E5E5D5D5C5C5B5B5A5A595958F0
:105100005857575656555555545453535252525159
:10511000515050504F4F4F4E4E4D4D4D4C4C4C4BAF
:105120004B4B4A4A4A4949494848484747474746F6
:105130004646454545444444444343434342424232
:10514000424141418182838485868788898B8C8D09
:105150008E8F919293959697999A9C9D9FA0A2A3CA
:10516000A5A7A8AAACAEB0B2B3B5B7B9BCBEC0C211
:10517000C5C7C9CCCED1D4D7D9DCDFE2E6E9ECF0A3
:10518000F3F7FAFE00000000555555555555C53F3B
:105190007D6FEB0312D6D4BF5544880E55C1C93F6D
:1051A0003B8F68B52882A4BF88B20175E0EF493F04
:1051B00009F7FD0DE13D023F4B2D8A1C273A03C044
:1051C000C88A599CE52A004059018D1B6C06E6BF30
:1051D00082922EB1C5B8B33F4FBB610567ACDD3FCE
:1051E000182D4454FB21E93F9BF681D20B73EF3F0E
:1051F000182D4454FB21F93FE2652F227F2B7A3C86
:10520000075C143326A6813CBDCBF07A8807703C3E
:10521000075C143326A6913CC4EB98999999C9BFB1
:10522000711623FEC671BCBF6D9A74AFF2B0B3BFE6
:105230009AFDDE522DDEADBF2F6C6A2C44B4A2BFA6
:105240000D5555555555D53FFF8300922449C23F12
:105250006E204CC5CD45B73F513DD0A0660DB13F46
:10526000EB0D76244B7BA93F11DA22E33AAD903F58
:1052700000000000000000000CC92C4CCD6C0000A8
:105280007000000000240000000200030000006520
:105290000054FFEF0000FA80000B12820001030CA3
:1052A00030C30E8C8CE914D5400213710F8E3883F5
:1052B000F8833000F883258EF8833000F883FFFFF1
:1052C000FFFF0FFEA9D6240004001A8279A1000076
:1052D000003CFFFF00000010000038836FA2003E7A
:1052E00003304000000002CAE3093E8000002000B5
:1052F0000000000000004000000060000000000C02
:105300000000000C186E000006920A16C0DFFFFFB6
:105310000256FD8CD377FFE1C496E0C5BEAA00001B
:105320000000FFFF0B2B0000165700000359400040
:10533000000000001DFA00026C1D000000003FFF8D
:10534000DFEB003EB3B6000D227800002F3C0000DA
:105350000000001942B5000039A20000B365D90E63
:105360009FC91DCF4C3430000000500000003BB6F8
:105370007AE80064000000C800000000000010008F
:1053800000001000FA921000225E000D229F000122
:10539000000000320000FF46000063D4000010004F
:1053A000000004D6000004CC000004CC0000000083
:1053B0001072000000400000000000000000000625
:1053C000000200050007000000000064000000006B
:1053D000000000000005000500640020000000003F
:1053E000000000000000000040000000030000007A
:1053F0000032F8980000FF650000830F0000FF9B5B
:10540000FC000000000000000000000000000000A0
:10541000000000000000000000000000000000008C
:10542000000000000000000000000000100040002C
:105430000000000000060000B26A00020000000147
:10544000FB830068000000D9FC007CF1FF830000B2
:10545000000000650000006403E80064002800000C
:1054600000250000000016A0000000001000000051
:105470001000002F0000000001F4000010000028C0
:105480000000FFFF4581FFFFFA72000000000000EE
:105490000000004400050005BAC6004778A20000DD
:1054A00000010000000000000600000000140000E1
:1054B000254D002F706D000005AE000C02D00000DD
:1054C0000000000000000000000000000000001BC1
:1054D0000000000000000000000000000000006468
:1054E00000000008000000000000000000000000B4
:1054F00000000000000000000000000000000000AC
:10550000000000000000000000000000000000009B
:10551000000000000000000000000000000000008B
:10552000000000000000000000000000000000007B
:105530000000000000000000000000000000001B50
:1055400000000000000000000000000E000E00003F
:105550000AC70004000000000032FFFFFF9C0000AB
:105560000B2B000000020000000100000064FFE5BA
:10557000000000000000000000000000000000002B
:105580000001000000000001000000000000000118
:1055900080000001800000018000002426D300006C
:1055A000000000000000000600100096003C000013
:1055B00000000000000000000000000000000C0AD5
:1055C0004E68CDCF770950166759C619CE820000B4
:1055D00000000000000000000000000000000000CB
:1055E00000000000000017D7840003000000000046
:1055F000000000000000C7938F9D1E1B1C190000B7
:10560000000000000000000000000000000000009A
:1056100000000000000002031885000040000000A8
:105620000003000000030000000000000000400034
:10563000000000000000000000000000000000006A
:10564000000000000000000000000000000000005A
:10565000000000000000000000000000000000004A
:105660000000677DDF7E72902E554CF6E6880000C4
:105670000000000000000000000000000000D8DC76
:10568000B4B8B0D8B9ABF3F8FAB3B7BB8E9EAEF1ED
:1056900032F51BF1B4B8B08097F1A9DFDFDFAADFE4
:1056A000DFDFF2AAC5CDC7A90CC92C97F1A98926BD
:1056B0004666B28999A92D557DB0B08AA89636560E
:1056C00076F1BAA3B4B280C0B8A89711B28398BAE1
:1056D000A3F0240844106418B2B9B49883F1A32944
:1056E000557DBAB5B1A38393F0002850F5B2B6AAA0
:1056F000839328547CF1B9A3829361BAA2DADEDFE6
:10570000DB819AB9AEF5606870F1DABAA2DFD9BA76
:10571000A2FAB9A38292DB31BAA2D9BAA2F8DF8584
:10572000A4D0C1BBAD83C2C5C7B8A2DFDFDFBAA0BA
:10573000DFDFDFD8D8F1B8AAB38DB4980D355DB2EC
:10574000B6BAAF8C96198F9FA70E161EB49AB8AA38
:10575000872C547CBAA4B08AB691325676B284941F
:10576000A4C808CDD8B8B4B0F19982A82D557D98B9
:10577000A80E161EA22C547C92A4F02C5078F18412
:10578000A898C4CDFCD80DDBA8FC2DF3D9BAA6F897
:10579000DABAA6DED8BAB2B68696A6D0F3C841DA8F
:1057A000A6C8F8D8B0B4B882A892F52C548898F15D
:1057B00035D9F418D8F1A2D0F8F9A884D9C7DFF800
:1057C000F883C5DADF69DF83C1D8F40114F1A88258
:1057D0004EA884F311D182F5D992289788F109F463
:1057E0001C1CD884A8F3C0F9D1D99782F129F40DF3
:1057F000D8F3F9F9D1D982F4C203D8DEDF1AD8F18F
:10580000A2FAF9A88498D9C7DFF8F8F883C7DADFD5
:1058100069DFF883C3D8F40114F198A8822EA88414
:10582000F311D182F5D992509788F109F41CD884EC
:10583000A8F3C0F8F9D1D99782F149F40DD8F3F95A
:10584000F9D1D982F4C403D8DEDFD8F1AD8898CC81
:10585000A809F9D98292A8F57CF1883ACF944A6ECA
:1058600098DB6931DAADF2DEF9D88795A8F221D15B
:10587000DAA5F9F417D9F1AE8ED0C0C3AE82C684D2
:10588000C3A88595C8A588F2C0F1F4010EF18E9EDB
:10589000A8C63E56F554F18872F40115F198458575
:1058A0006EF58E9E0488F142985A8E9E068869F4A1
:1058B000011CF1981E1108D0F504F11E9702029800
:1058C0003625DBF9D985A5F3C1DA85A5F3DFD885BF
:1058D00095A8F309DAA5FAD88292A8F578F1881A82
:1058E000849F26889821DAF41DF3D8879F39D1AF99
:1058F000D9DFDFFBF9F40CF3D8FAD0F8DAF9F9D0F4
:10590000DFD9F9D8F40BD8F3879F39D1AFD9DFDFCE
:10591000F41DF3D8FAFCA869F9F9AFD0DADEFAD9A8
:10592000F88F9FA8F1CCF398DB45D9AFDFD0F8D83A
:10593000F18F9FA8CAF38809DAAF8FCBF8D8F2AD00
:10594000978D0CD9A5DFF9BAA6F3FAF412F2D8951F
:105950000DD1D9BAA6F3FADAA5F2C1BAA6F3DFD807
:10596000F1BAB2B68696A6D0CAF349DAA6CBF8D871
:10597000B0B4B8D8AD84F2C0DFF18FCBC3A8B2B653
:105980008696C8C1CBC3F3B0B48898A821DB718DCB
:105990009D71859521D9ADF2FAD88597A828D9F4BB
:1059A00008D8F28D29DAF405D9F285A4C2F2D8A874
:1059B0008D9401D1D9F411F2D88721D8F40AD8F204
:1059C0008498A8C801D1D9F411D8F3A4C8BBAFD02A
:1059D000F2DEF8F8F8F8F8F8F8F8D8F1B8F6B5B952
:1059E000B08A95A3DE3CA3D9F8D85CA3D9F8D87CBB
:1059F000A3D9F8D8F8F9D1A5D9DFDAFAD8B185302A
:105A0000F7D9DED8F830ADDADED8F2B48C99A32D10
:105A1000557DA083DFDFDFB591A0F629D9FBD8A0A3
:105A2000FC29D9FAD8A0D051D9F8D8FC51D9F9D845
:105A300079D9FBD8A0D0FC79D9FAD8A1F9F9F9F92C
:105A4000F9A0DADFDFDFD8A1F8F8F8F8F8ACDEF873
:105A5000ADDE8393AC2C547CF1A8DFDFDFF69D2C08
:105A6000DAA0DFD9FADB2DF8D8A850DAA0D0DED939
:105A7000D0F8F8F8DB55F8D8A878DAA0D0DFD9D07C
:105A8000FAF8F8F8F8DB7DF8D89CA88CF530DB380C
:105A9000D9D0DEDFA0D0DEDFD8A848DB58D9DFD0F0
:105AA000DEA0DFD0DED8A868DB70D9DFDFA0DFDFC3
:105AB000D8F1A888902C547C98A8D05C38D1DAF220
:105AC000AE8CDFF9D8B087A8C1C1B188A8C6F9F9F2
:105AD000DA36D8A8F9DA36D8A8F9DA36D8A8F9DA51
